{
  "abi": [
    {
      "inputs": [],
      "payable": false,
      "stateMutability": "nonpayable",
      "type": "constructor"
    },
    {
      "anonymous": false,
      "inputs": [
        {
          "indexed": true,
          "internalType": "address",
          "name": "owner",
          "type": "address"
        },
        {
          "indexed": true,
          "internalType": "address",
          "name": "spender",
          "type": "address"
        },
        {
          "indexed": false,
          "internalType": "uint256",
          "name": "amount",
          "type": "uint256"
        }
      ],
      "name": "Approval",
      "type": "event"
    },
    {
      "anonymous": false,
      "inputs": [
        {
          "indexed": true,
          "internalType": "address",
          "name": "delegator",
          "type": "address"
        },
        {
          "indexed": true,
          "internalType": "address",
          "name": "fromDelegate",
          "type": "address"
        },
        {
          "indexed": true,
          "internalType": "address",
          "name": "toDelegate",
          "type": "address"
        }
      ],
      "name": "DelegateChanged",
      "type": "event"
    },
    {
      "anonymous": false,
      "inputs": [
        {
          "indexed": true,
          "internalType": "address",
          "name": "delegate",
          "type": "address"
        },
        {
          "indexed": false,
          "internalType": "uint256",
          "name": "previousBalance",
          "type": "uint256"
        },
        {
          "indexed": false,
          "internalType": "uint256",
          "name": "newBalance",
          "type": "uint256"
        }
      ],
      "name": "DelegateVotesChanged",
      "type": "event"
    },
    {
      "anonymous": false,
      "inputs": [
        {
          "indexed": true,
          "internalType": "address",
          "name": "from",
          "type": "address"
        },
        {
          "indexed": true,
          "internalType": "address",
          "name": "to",
          "type": "address"
        },
        {
          "indexed": false,
          "internalType": "uint256",
          "name": "amount",
          "type": "uint256"
        }
      ],
      "name": "Transfer",
      "type": "event"
    },
    {
      "constant": true,
      "inputs": [],
      "name": "CRV",
      "outputs": [
        {
          "internalType": "contract IERC20",
          "name": "",
          "type": "address"
        }
      ],
      "payable": false,
      "stateMutability": "view",
      "type": "function"
    },
    {
      "constant": true,
      "inputs": [],
      "name": "DELEGATION_TYPEHASH",
      "outputs": [
        {
          "internalType": "bytes32",
          "name": "",
          "type": "bytes32"
        }
      ],
      "payable": false,
      "stateMutability": "view",
      "type": "function"
    },
    {
      "constant": true,
      "inputs": [],
      "name": "DOMAINSEPARATOR",
      "outputs": [
        {
          "internalType": "bytes32",
          "name": "",
          "type": "bytes32"
        }
      ],
      "payable": false,
      "stateMutability": "view",
      "type": "function"
    },
    {
      "constant": true,
      "inputs": [],
      "name": "DOMAIN_TYPEHASH",
      "outputs": [
        {
          "internalType": "bytes32",
          "name": "",
          "type": "bytes32"
        }
      ],
      "payable": false,
      "stateMutability": "view",
      "type": "function"
    },
    {
      "constant": true,
      "inputs": [],
      "name": "LOCK",
      "outputs": [
        {
          "internalType": "address",
          "name": "",
          "type": "address"
        }
      ],
      "payable": false,
      "stateMutability": "view",
      "type": "function"
    },
    {
      "constant": true,
      "inputs": [],
      "name": "PERMIT_TYPEHASH",
      "outputs": [
        {
          "internalType": "bytes32",
          "name": "",
          "type": "bytes32"
        }
      ],
      "payable": false,
      "stateMutability": "view",
      "type": "function"
    },
    {
      "constant": false,
      "inputs": [],
      "name": "acceptGovernance",
      "outputs": [],
      "payable": false,
      "stateMutability": "nonpayable",
      "type": "function"
    },
    {
      "constant": true,
      "inputs": [
        {
          "internalType": "address",
          "name": "account",
          "type": "address"
        },
        {
          "internalType": "address",
          "name": "spender",
          "type": "address"
        }
      ],
      "name": "allowance",
      "outputs": [
        {
          "internalType": "uint256",
          "name": "",
          "type": "uint256"
        }
      ],
      "payable": false,
      "stateMutability": "view",
      "type": "function"
    },
    {
      "constant": false,
      "inputs": [
        {
          "internalType": "address",
          "name": "spender",
          "type": "address"
        },
        {
          "internalType": "uint256",
          "name": "amount",
          "type": "uint256"
        }
      ],
      "name": "approve",
      "outputs": [
        {
          "internalType": "bool",
          "name": "",
          "type": "bool"
        }
      ],
      "payable": false,
      "stateMutability": "nonpayable",
      "type": "function"
    },
    {
      "constant": true,
      "inputs": [],
      "name": "bal",
      "outputs": [
        {
          "internalType": "uint256",
          "name": "",
          "type": "uint256"
        }
      ],
      "payable": false,
      "stateMutability": "view",
      "type": "function"
    },
    {
      "constant": true,
      "inputs": [
        {
          "internalType": "address",
          "name": "account",
          "type": "address"
        }
      ],
      "name": "balanceOf",
      "outputs": [
        {
          "internalType": "uint256",
          "name": "",
          "type": "uint256"
        }
      ],
      "payable": false,
      "stateMutability": "view",
      "type": "function"
    },
    {
      "constant": true,
      "inputs": [
        {
          "internalType": "address",
          "name": "",
          "type": "address"
        },
        {
          "internalType": "uint32",
          "name": "",
          "type": "uint32"
        }
      ],
      "name": "checkpoints",
      "outputs": [
        {
          "internalType": "uint32",
          "name": "fromBlock",
          "type": "uint32"
        },
        {
          "internalType": "uint256",
          "name": "votes",
          "type": "uint256"
        }
      ],
      "payable": false,
      "stateMutability": "view",
      "type": "function"
    },
    {
      "constant": false,
      "inputs": [],
      "name": "claim",
      "outputs": [],
      "payable": false,
      "stateMutability": "nonpayable",
      "type": "function"
    },
    {
      "constant": false,
      "inputs": [
        {
          "internalType": "address",
          "name": "recipient",
          "type": "address"
        }
      ],
      "name": "claimFor",
      "outputs": [],
      "payable": false,
      "stateMutability": "nonpayable",
      "type": "function"
    },
    {
      "constant": true,
      "inputs": [
        {
          "internalType": "address",
          "name": "",
          "type": "address"
        }
      ],
      "name": "claimable",
      "outputs": [
        {
          "internalType": "uint256",
          "name": "",
          "type": "uint256"
        }
      ],
      "payable": false,
      "stateMutability": "view",
      "type": "function"
    },
    {
      "constant": true,
      "inputs": [],
      "name": "decimals",
      "outputs": [
        {
          "internalType": "uint8",
          "name": "",
          "type": "uint8"
        }
      ],
      "payable": false,
      "stateMutability": "view",
      "type": "function"
    },
    {
      "constant": false,
      "inputs": [
        {
          "internalType": "address",
          "name": "delegatee",
          "type": "address"
        }
      ],
      "name": "delegate",
      "outputs": [],
      "payable": false,
      "stateMutability": "nonpayable",
      "type": "function"
    },
    {
      "constant": false,
      "inputs": [
        {
          "internalType": "address",
          "name": "delegatee",
          "type": "address"
        },
        {
          "internalType": "uint256",
          "name": "nonce",
          "type": "uint256"
        },
        {
          "internalType": "uint256",
          "name": "expiry",
          "type": "uint256"
        },
        {
          "internalType": "uint8",
          "name": "v",
          "type": "uint8"
        },
        {
          "internalType": "bytes32",
          "name": "r",
          "type": "bytes32"
        },
        {
          "internalType": "bytes32",
          "name": "s",
          "type": "bytes32"
        }
      ],
      "name": "delegateBySig",
      "outputs": [],
      "payable": false,
      "stateMutability": "nonpayable",
      "type": "function"
    },
    {
      "constant": true,
      "inputs": [
        {
          "internalType": "address",
          "name": "",
          "type": "address"
        }
      ],
      "name": "delegates",
      "outputs": [
        {
          "internalType": "address",
          "name": "",
          "type": "address"
        }
      ],
      "payable": false,
      "stateMutability": "view",
      "type": "function"
    },
    {
      "constant": false,
      "inputs": [
        {
          "internalType": "uint256",
          "name": "_amount",
          "type": "uint256"
        }
      ],
      "name": "deposit",
      "outputs": [],
      "payable": false,
      "stateMutability": "nonpayable",
      "type": "function"
    },
    {
      "constant": false,
      "inputs": [],
      "name": "depositAll",
      "outputs": [],
      "payable": false,
      "stateMutability": "nonpayable",
      "type": "function"
    },
    {
      "constant": true,
      "inputs": [],
      "name": "feeDistribution",
      "outputs": [
        {
          "internalType": "address",
          "name": "",
          "type": "address"
        }
      ],
      "payable": false,
      "stateMutability": "view",
      "type": "function"
    },
    {
      "constant": true,
      "inputs": [
        {
          "internalType": "address",
          "name": "account",
          "type": "address"
        }
      ],
      "name": "getCurrentVotes",
      "outputs": [
        {
          "internalType": "uint256",
          "name": "",
          "type": "uint256"
        }
      ],
      "payable": false,
      "stateMutability": "view",
      "type": "function"
    },
    {
      "constant": true,
      "inputs": [
        {
          "internalType": "address",
          "name": "account",
          "type": "address"
        },
        {
          "internalType": "uint256",
          "name": "blockNumber",
          "type": "uint256"
        }
      ],
      "name": "getPriorVotes",
      "outputs": [
        {
          "internalType": "uint256",
          "name": "",
          "type": "uint256"
        }
      ],
      "payable": false,
      "stateMutability": "view",
      "type": "function"
    },
    {
      "constant": true,
      "inputs": [],
      "name": "governance",
      "outputs": [
        {
          "internalType": "address",
          "name": "",
          "type": "address"
        }
      ],
      "payable": false,
      "stateMutability": "view",
      "type": "function"
    },
    {
      "constant": true,
      "inputs": [],
      "name": "index",
      "outputs": [
        {
          "internalType": "uint256",
          "name": "",
          "type": "uint256"
        }
      ],
      "payable": false,
      "stateMutability": "view",
      "type": "function"
    },
    {
      "constant": true,
      "inputs": [],
      "name": "name",
      "outputs": [
        {
          "internalType": "string",
          "name": "",
          "type": "string"
        }
      ],
      "payable": false,
      "stateMutability": "view",
      "type": "function"
    },
    {
      "constant": true,
      "inputs": [
        {
          "internalType": "address",
          "name": "",
          "type": "address"
        }
      ],
      "name": "nonces",
      "outputs": [
        {
          "internalType": "uint256",
          "name": "",
          "type": "uint256"
        }
      ],
      "payable": false,
      "stateMutability": "view",
      "type": "function"
    },
    {
      "constant": true,
      "inputs": [
        {
          "internalType": "address",
          "name": "",
          "type": "address"
        }
      ],
      "name": "numCheckpoints",
      "outputs": [
        {
          "internalType": "uint32",
          "name": "",
          "type": "uint32"
        }
      ],
      "payable": false,
      "stateMutability": "view",
      "type": "function"
    },
    {
      "constant": true,
      "inputs": [],
      "name": "pendingGovernance",
      "outputs": [
        {
          "internalType": "address",
          "name": "",
          "type": "address"
        }
      ],
      "payable": false,
      "stateMutability": "view",
      "type": "function"
    },
    {
      "constant": false,
      "inputs": [
        {
          "internalType": "address",
          "name": "owner",
          "type": "address"
        },
        {
          "internalType": "address",
          "name": "spender",
          "type": "address"
        },
        {
          "internalType": "uint256",
          "name": "amount",
          "type": "uint256"
        },
        {
          "internalType": "uint256",
          "name": "deadline",
          "type": "uint256"
        },
        {
          "internalType": "uint8",
          "name": "v",
          "type": "uint8"
        },
        {
          "internalType": "bytes32",
          "name": "r",
          "type": "bytes32"
        },
        {
          "internalType": "bytes32",
          "name": "s",
          "type": "bytes32"
        }
      ],
      "name": "permit",
      "outputs": [],
      "payable": false,
      "stateMutability": "nonpayable",
      "type": "function"
    },
    {
      "constant": true,
      "inputs": [],
      "name": "proxy",
      "outputs": [
        {
          "internalType": "address",
          "name": "",
          "type": "address"
        }
      ],
      "payable": false,
      "stateMutability": "view",
      "type": "function"
    },
    {
      "constant": true,
      "inputs": [],
      "name": "rewards",
      "outputs": [
        {
          "internalType": "contract IERC20",
          "name": "",
          "type": "address"
        }
      ],
      "payable": false,
      "stateMutability": "view",
      "type": "function"
    },
    {
      "constant": false,
      "inputs": [
        {
          "internalType": "address",
          "name": "_feeDistribution",
          "type": "address"
        }
      ],
      "name": "setFeeDistribution",
      "outputs": [],
      "payable": false,
      "stateMutability": "nonpayable",
      "type": "function"
    },
    {
      "constant": false,
      "inputs": [
        {
          "internalType": "address",
          "name": "_governance",
          "type": "address"
        }
      ],
      "name": "setGovernance",
      "outputs": [],
      "payable": false,
      "stateMutability": "nonpayable",
      "type": "function"
    },
    {
      "constant": false,
      "inputs": [
        {
          "internalType": "address",
          "name": "_proxy",
          "type": "address"
        }
      ],
      "name": "setProxy",
      "outputs": [],
      "payable": false,
      "stateMutability": "nonpayable",
      "type": "function"
    },
    {
      "constant": true,
      "inputs": [
        {
          "internalType": "address",
          "name": "",
          "type": "address"
        }
      ],
      "name": "supplyIndex",
      "outputs": [
        {
          "internalType": "uint256",
          "name": "",
          "type": "uint256"
        }
      ],
      "payable": false,
      "stateMutability": "view",
      "type": "function"
    },
    {
      "constant": true,
      "inputs": [],
      "name": "symbol",
      "outputs": [
        {
          "internalType": "string",
          "name": "",
          "type": "string"
        }
      ],
      "payable": false,
      "stateMutability": "view",
      "type": "function"
    },
    {
      "constant": true,
      "inputs": [],
      "name": "totalSupply",
      "outputs": [
        {
          "internalType": "uint256",
          "name": "",
          "type": "uint256"
        }
      ],
      "payable": false,
      "stateMutability": "view",
      "type": "function"
    },
    {
      "constant": false,
      "inputs": [
        {
          "internalType": "address",
          "name": "dst",
          "type": "address"
        },
        {
          "internalType": "uint256",
          "name": "amount",
          "type": "uint256"
        }
      ],
      "name": "transfer",
      "outputs": [
        {
          "internalType": "bool",
          "name": "",
          "type": "bool"
        }
      ],
      "payable": false,
      "stateMutability": "nonpayable",
      "type": "function"
    },
    {
      "constant": false,
      "inputs": [
        {
          "internalType": "address",
          "name": "src",
          "type": "address"
        },
        {
          "internalType": "address",
          "name": "dst",
          "type": "address"
        },
        {
          "internalType": "uint256",
          "name": "amount",
          "type": "uint256"
        }
      ],
      "name": "transferFrom",
      "outputs": [
        {
          "internalType": "bool",
          "name": "",
          "type": "bool"
        }
      ],
      "payable": false,
      "stateMutability": "nonpayable",
      "type": "function"
    },
    {
      "constant": false,
      "inputs": [],
      "name": "update",
      "outputs": [],
      "payable": false,
      "stateMutability": "nonpayable",
      "type": "function"
    },
    {
      "constant": false,
      "inputs": [
        {
          "internalType": "address",
          "name": "recipient",
          "type": "address"
        }
      ],
      "name": "updateFor",
      "outputs": [],
      "payable": false,
      "stateMutability": "nonpayable",
      "type": "function"
    }
  ],
  "bytecode": "60806040526000808055600a80546001600160a01b031916737a1848e7847f3f5ffb4d8e63bdb9569db535a4f0179055600c819055600d5534801561004357600080fd5b50600880546001600160a01b03191633179055604080519081906125078239604080519182900381018220828201909152601082526f1d9950d4958b511053c81e55985d5b1d60821b60209092019190915290507fe221ea24e1957eed640af1c444f368d3df27b92f51aaa842e46ce73f81cadd6f6100c96001600160e01b0361010d16565b60408051602080820195909552808201939093526060830191909152306080808401919091528151808403909101815260a090920190528051910120600655610111565b4690565b6123e7806101206000396000f3fe608060405234801561001057600080fd5b50600436106102695760003560e01c8063782d6fe111610151578063b6b55f25116100c3578063de5f626811610087578063de5f626814610743578063e380fcad1461074b578063e7a324dc14610771578063ec55688914610779578063f1127ed814610781578063f39c38a0146107d357610269565b8063b6b55f251461063a578063c3cda52014610657578063d505accf1461069e578063dd62ed3e146106ef578063ddeae0331461071d57610269565b80639ec5a894116101155780639ec5a894146105aa578063a2e62045146105b2578063a4f0d7d0146105ba578063a9059cbb146105c2578063ab033ea9146105ee578063b4b5ea571461061457610269565b8063782d6fe1146105225780637ecebe001461054e578063945c91421461057457806395d89b411461057c57806397107d6d1461058457610269565b80632986c0e5116101ea5780634e71d92d116101ae5780634e71d92d14610461578063587cde1e146104695780635aa6e6751461048f5780635c19a95c146104975780636fcfff45146104bd57806370a08231146104fc57610269565b80632986c0e51461040557806330adf81f1461040d578063313ce567146104155780633d79d1c814610433578063402914f51461043b57610269565b80631919db33116102315780631919db331461037557806320606b701461039b578063238efcbc146103a357806323b872dd146103ab5780632479b177146103e157610269565b806306fdde031461026e578063095ea7b3146102eb5780630e0a59681461032b5780631778e29c1461035357806318160ddd1461036d575b600080fd5b6102766107db565b6040805160208082528351818301528351919283929083019185019080838360005b838110156102b0578181015183820152602001610298565b50505050905090810190601f1680156102dd5780820380516001836020036101000a031916815260200191505b509250505060405180910390f35b6103176004803603604081101561030157600080fd5b506001600160a01b038135169060200135610807565b604080519115158252519081900360200190f35b6103516004803603602081101561034157600080fd5b50356001600160a01b031661086e565b005b61035b6109a2565b60408051918252519081900360200190f35b61035b6109a8565b6103516004803603602081101561038b57600080fd5b50356001600160a01b03166109ae565b61035b610a25565b610351610a41565b610317600480360360608110156103c157600080fd5b506001600160a01b03813581169160208101359091169060400135610ac4565b6103e9610bac565b604080516001600160a01b039092168252519081900360200190f35b61035b610bbb565b61035b610bc1565b61041d610bdc565b6040805160ff9092168252519081900360200190f35b61035b610be1565b61035b6004803603602081101561045157600080fd5b50356001600160a01b0316610be7565b610351610bf9565b6103e96004803603602081101561047f57600080fd5b50356001600160a01b0316610c04565b6103e9610c1f565b610351600480360360208110156104ad57600080fd5b50356001600160a01b0316610c2e565b6104e3600480360360208110156104d357600080fd5b50356001600160a01b0316610c3b565b6040805163ffffffff9092168252519081900360200190f35b61035b6004803603602081101561051257600080fd5b50356001600160a01b0316610c53565b61035b6004803603604081101561053857600080fd5b506001600160a01b038135169060200135610c6e565b61035b6004803603602081101561056457600080fd5b50356001600160a01b0316610e7d565b6103e9610e8f565b610276610ea7565b6103516004803603602081101561059a57600080fd5b50356001600160a01b0316610ecd565b6103e9610f44565b610351610f5c565b6103e9610f64565b610317600480360360408110156105d857600080fd5b506001600160a01b038135169060200135610f7c565b6103516004803603602081101561060457600080fd5b50356001600160a01b0316610f92565b61035b6004803603602081101561062a57600080fd5b50356001600160a01b0316611009565b6103516004803603602081101561065057600080fd5b503561106d565b610351600480360360c081101561066d57600080fd5b506001600160a01b038135169060208101359060408101359060ff6060820135169060808101359060a00135611076565b610351600480360360e08110156106b457600080fd5b506001600160a01b03813581169160208101359091169060408101359060608101359060ff6080820135169060a08101359060c00135611290565b61035b6004803603604081101561070557600080fd5b506001600160a01b0381358116916020013516611512565b6103516004803603602081101561073357600080fd5b50356001600160a01b031661153d565b610351611546565b61035b6004803603602081101561076157600080fd5b50356001600160a01b03166115cd565b61035b6115df565b6103e96115fa565b6107b36004803603604081101561079757600080fd5b5080356001600160a01b0316906020013563ffffffff16611609565b6040805163ffffffff909316835260208301919091528051918290030190f35b6103e9611636565b6040518060400160405280601081526020016f1d9950d4958b511053c81e55985d5b1d60821b81525081565b3360008181526004602090815260408083206001600160a01b038716808552908352818420869055815186815291519394909390927f8c5be1e5ebec7d5bd14f71427d1e84f3dd0314c0f7b2291e5b200ac8c7c3b925928290030190a35060015b92915050565b610876611645565b6001600160a01b0381166000908152600560205260409020548015610981576001600160a01b0382166000908152600e602090815260408083208054600c54918290558251808401909352601d83527f76654352563a3a5f636c61696d466f723a20696e6465782064656c74610000009383019390935291929161090191849063ffffffff61178216565b9050801561097a576000610933670de0b6b3a7640000610927868563ffffffff61181916565b9063ffffffff61187216565b6001600160a01b0386166000908152600f602052604090205490915061095f908263ffffffff6118b416565b6001600160a01b0386166000908152600f6020526040902055505b505061099e565b600c546001600160a01b0383166000908152600e60205260409020555b5050565b60065481565b60005481565b6008546001600160a01b03163314610a03576040805162461bcd60e51b815260206004820152601360248201527239b2ba23b7bb32b93730b731b29d1010b3b7bb60691b604482015290519081900360640190fd5b600b80546001600160a01b0319166001600160a01b0392909216919091179055565b604051808061232b604091396040019050604051809103902081565b6009546001600160a01b03163314610aa0576040805162461bcd60e51b815260206004820152601d60248201527f616363657074476f7665726e616e63653a202170656e64696e67476f76000000604482015290519081900360640190fd5b600954600880546001600160a01b0319166001600160a01b03909216919091179055565b6001600160a01b038316600081815260046020908152604080832033808552925282205491929091908214801590610afe57506000198114155b15610b95576000610b308560405180606001604052806027815260200161238c6027913984919063ffffffff61178216565b6001600160a01b0380891660008181526004602090815260408083209489168084529482529182902085905581518581529151949550929391927f8c5be1e5ebec7d5bd14f71427d1e84f3dd0314c0f7b2291e5b200ac8c7c3b92592918290030190a3505b610ba086868661190e565b50600195945050505050565b600b546001600160a01b031681565b600c5481565b6040518060496122e282396049019050604051809103902081565b601281565b600d5481565b600f6020526000908152604090205481565b610c0233611ac4565b565b6001602052600090815260409020546001600160a01b031681565b6008546001600160a01b031681565b610c383382611c06565b50565b60036020526000908152604090205463ffffffff1681565b6001600160a01b031660009081526005602052604090205490565b6000438210610cb5576040805162461bcd60e51b815260206004820152600e60248201526d33b2ba283934b7b92b37ba32b99d60911b604482015290519081900360640190fd5b6001600160a01b03831660009081526003602052604090205463ffffffff1680610ce3576000915050610868565b6001600160a01b038416600090815260026020908152604080832063ffffffff600019860181168552925290912054168310610d52576001600160a01b03841660009081526002602090815260408083206000199490940163ffffffff16835292905220600101549050610868565b6001600160a01b038416600090815260026020908152604080832083805290915290205463ffffffff16831015610d8d576000915050610868565b600060001982015b8163ffffffff168163ffffffff161115610e4657600282820363ffffffff16048103610dbf612296565b506001600160a01b038716600090815260026020908152604080832063ffffffff808616855290835292819020815180830190925280549093168082526001909301549181019190915290871415610e21576020015194506108689350505050565b805163ffffffff16871115610e3857819350610e3f565b6001820392505b5050610d95565b506001600160a01b038516600090815260026020908152604080832063ffffffff9094168352929052206001015491505092915050565b60076020526000908152604090205481565b73d533a949740bb3306d119cc777fa900ba034cd5281565b6040518060400160405280600a8152602001697976654352562d44414f60b01b81525081565b6008546001600160a01b03163314610f22576040805162461bcd60e51b815260206004820152601360248201527239b2ba23b7bb32b93730b731b29d1010b3b7bb60691b604482015290519081900360640190fd5b600a80546001600160a01b0319166001600160a01b0392909216919091179055565b736c3f90f043a72fa612cbac8115ee7e52bde6e49081565b610c02611645565b73f147b8125d2ef93fb6965db97d6746952a13393481565b6000610f8933848461190e565b50600192915050565b6008546001600160a01b03163314610fe7576040805162461bcd60e51b815260206004820152601360248201527239b2ba23b7bb32b93730b731b29d1010b3b7bb60691b604482015290519081900360640190fd5b600980546001600160a01b0319166001600160a01b0392909216919091179055565b6001600160a01b03811660009081526003602052604081205463ffffffff1680611034576000611066565b6001600160a01b038316600090815260026020908152604080832063ffffffff60001986011684529091529020600101545b9392505050565b610c3881611c86565b600060405180806122ae60349139604080519182900360340182206020808401919091526001600160a01b038b1683830152606083018a905260808084018a90528251808503909101815260a08401835280519082012060065461190160f01b60c086015260c285015260e2808501829052835180860390910181526101028501808552815191840191909120600091829052610122860180865281905260ff8b1661014287015261016286018a90526101828601899052935191965092945091926001926101a28083019392601f198301929081900390910190855afa158015611165573d6000803e3d6000fd5b5050604051601f1901519150506001600160a01b0381166111c2576040805162461bcd60e51b815260206004820152601260248201527164656c656761746542795369673a2073696760701b604482015290519081900360640190fd5b6001600160a01b0381166000908152600760205260409020805460018101909155881461122d576040805162461bcd60e51b815260206004820152601460248201527364656c656761746542795369673a206e6f6e636560601b604482015290519081900360640190fd5b8642111561127b576040805162461bcd60e51b815260206004820152601660248201527519195b1959d85d19509e54da59ce88195e1c1a5c995960521b604482015290519081900360640190fd5b611285818a611c06565b505050505050505050565b600060405180806122e260499139604080519182900360490182206001600160a01b03808d16600081815260076020908152858220805460018082019092558289019690965287870193909352928e166060870152608086018d905260a086019390935260c08086018c90528451808703909101815260e08601855280519083012060065461190160f01b61010088015261010287015261012280870182905285518088039091018152610142870180875281519185019190912090859052610162870180875281905260ff8c166101828801526101a287018b90526101c287018a90529451909750939550919391926101e280840193601f198301929081900390910190855afa1580156113a9573d6000803e3d6000fd5b5050604051601f1901519150506001600160a01b038116611405576040805162461bcd60e51b81526020600482015260116024820152707065726d69743a207369676e617475726560781b604482015290519081900360640190fd5b896001600160a01b0316816001600160a01b031614611462576040805162461bcd60e51b81526020600482015260146024820152731c195c9b5a5d0e881d5b985d5d1a1bdc9a5e995960621b604482015290519081900360640190fd5b864211156114a9576040805162461bcd60e51b815260206004820152600f60248201526e1c195c9b5a5d0e88195e1c1a5c9959608a1b604482015290519081900360640190fd5b6001600160a01b03808b166000818152600460209081526040808320948e16808452948252918290208c905581518c815291517f8c5be1e5ebec7d5bd14f71427d1e84f3dd0314c0f7b2291e5b200ac8c7c3b9259281900390910190a350505050505050505050565b6001600160a01b03918216600090815260046020908152604080832093909416825291909152205490565b610c3881611ac4565b604080516370a0823160e01b81523360048201529051610c029173d533a949740bb3306d119cc777fa900ba034cd52916370a0823191602480820192602092909190829003018186803b15801561159c57600080fd5b505afa1580156115b0573d6000803e3d6000fd5b505050506040513d60208110156115c657600080fd5b5051611c86565b600e6020526000908152604090205481565b6040518060346122ae82396034019050604051809103902081565b600a546001600160a01b031681565b60026020908152600092835260408084209091529082529020805460019091015463ffffffff9091169082565b6009546001600160a01b031681565b60005415610c0257611655611d9c565b604080516370a0823160e01b81523060048201529051600091736c3f90f043a72fa612cbac8115ee7e52bde6e490916370a0823191602480820192602092909190829003018186803b1580156116aa57600080fd5b505afa1580156116be573d6000803e3d6000fd5b505050506040513d60208110156116d457600080fd5b5051600d54909150811115610c38576000611731600d546040518060400160405280601981526020017f76654352563a3a5f7570646174653a2062616c205f6469666600000000000000815250846117829092919063ffffffff16565b9050801561099e57600080546117599061092784670de0b6b3a764000063ffffffff61181916565b9050801561177d57600c54611774908263ffffffff6118b416565b600c55600d8390555b505050565b600081848411156118115760405162461bcd60e51b81526004018080602001828103825283818151815260200191508051906020019080838360005b838110156117d65781810151838201526020016117be565b50505050905090810190601f1680156118035780820380516001836020036101000a031916815260200191505b509250505060405180910390fd5b505050900390565b60008261182857506000610868565b8282028284828161183557fe5b04146110665760405162461bcd60e51b815260040180806020018281038252602181526020018061236b6021913960400191505060405180910390fd5b600061106683836040518060400160405280601a81526020017f536166654d6174683a206469766973696f6e206279207a65726f000000000000815250611e0d565b600082820183811015611066576040805162461bcd60e51b815260206004820152601b60248201527f536166654d6174683a206164646974696f6e206f766572666c6f770000000000604482015290519081900360640190fd5b6001600160a01b038316611969576040805162461bcd60e51b815260206004820152601d60248201527f5f7472616e73666572546f6b656e733a207a65726f2061646472657373000000604482015290519081900360640190fd5b6001600160a01b0382166119c4576040805162461bcd60e51b815260206004820152601d60248201527f5f7472616e73666572546f6b656e733a207a65726f2061646472657373000000604482015290519081900360640190fd5b6119cd8361086e565b6119d68261086e565b60408051808201825260208082527f5f7472616e73666572546f6b656e733a20657863656564732062616c616e6365818301526001600160a01b038616600090815260059091529190912054611a3391839063ffffffff61178216565b6001600160a01b038085166000908152600560205260408082209390935590841681522054611a68908263ffffffff6118b416565b6001600160a01b0380841660008181526005602090815260409182902094909455805185815290519193928716927fddf252ad1be2c89b69c2b068fc378daa952ba7f163c4a11628f55a4df523b3ef92918290030190a3505050565b611acd8161086e565b6001600160a01b0381166000818152600f6020908152604080832054815163a9059cbb60e01b81526004810195909552602485015251736c3f90f043a72fa612cbac8115ee7e52bde6e4909363a9059cbb9360448083019493928390030190829087803b158015611b3d57600080fd5b505af1158015611b51573d6000803e3d6000fd5b505050506040513d6020811015611b6757600080fd5b50506001600160a01b0381166000908152600f602090815260408083209290925581516370a0823160e01b81523060048201529151736c3f90f043a72fa612cbac8115ee7e52bde6e490926370a08231926024808301939192829003018186803b158015611bd457600080fd5b505afa158015611be8573d6000803e3d6000fd5b505050506040513d6020811015611bfe57600080fd5b5051600d5550565b6001600160a01b03808316600081815260016020818152604080842080546005845282862054949093528787166001600160a01b03198416811790915590519190951694919391928592917f3134e8a2e6d97e929a7e54011ea5485d7d196dd5f0ba4d4ef95803e8e3fc257f9190a4611c80828483611e72565b50505050565b604080516323b872dd60e01b815233600482015273f147b8125d2ef93fb6965db97d6746952a133934602482015260448101839052905173d533a949740bb3306d119cc777fa900ba034cd52916323b872dd9160648083019260209291908290030181600087803b158015611cfa57600080fd5b505af1158015611d0e573d6000803e3d6000fd5b505050506040513d6020811015611d2457600080fd5b50611d3190503382611ff6565b600a60009054906101000a90046001600160a01b03166001600160a01b031663f83d08ba6040518163ffffffff1660e01b8152600401600060405180830381600087803b158015611d8157600080fd5b505af1158015611d95573d6000803e3d6000fd5b5050505050565b600b546001600160a01b031615610c0257600b5460408051630f41a04d60e11b815230600482015290516001600160a01b0390921691631e83409a9160248082019260009290919082900301818387803b158015611df957600080fd5b505af1158015611c80573d6000803e3d6000fd5b60008183611e5c5760405162461bcd60e51b81526020600482018181528351602484015283519092839260449091019190850190808383600083156117d65781810151838201526020016117be565b506000838581611e6857fe5b0495945050505050565b816001600160a01b0316836001600160a01b031614158015611e945750600081115b1561177d576001600160a01b03831615611f5f576001600160a01b03831660009081526003602052604081205463ffffffff169081611ed4576000611f06565b6001600160a01b038516600090815260026020908152604080832063ffffffff60001987011684529091529020600101545b90506000611f4d84604051806040016040528060168152602001755f6d6f7665566f7465733a20756e646572666c6f777360501b815250846117829092919063ffffffff16565b9050611f5b868484846120b6565b5050505b6001600160a01b0382161561177d576001600160a01b03821660009081526003602052604081205463ffffffff169081611f9a576000611fcc565b6001600160a01b038416600090815260026020908152604080832063ffffffff60001987011684529091529020600101545b90506000611fe0828563ffffffff6118b416565b9050611fee858484846120b6565b505050505050565b611fff8261086e565b600054612012908263ffffffff6118b416565b60009081556001600160a01b03831681526005602052604090205461203d908263ffffffff6118b416565b6001600160a01b03831660008181526005602090815260408083209490945583518581529351929391927fddf252ad1be2c89b69c2b068fc378daa952ba7f163c4a11628f55a4df523b3ef9281900390910190a36001600160a01b0380831660009081526001602052604081205461099e921683611e72565b60006120f7436040518060400160405280601981526020017f5f7772697465436865636b706f696e743a203332206269747300000000000000815250612238565b905060008463ffffffff1611801561214057506001600160a01b038516600090815260026020908152604080832063ffffffff6000198901811685529252909120548282169116145b1561217d576001600160a01b038516600090815260026020908152604080832063ffffffff600019890116845290915290206001018290556121ee565b60408051808201825263ffffffff808416825260208083018681526001600160a01b038a166000818152600284528681208b8616825284528681209551865490861663ffffffff19918216178755925160019687015590815260039092529390208054928801909116919092161790555b604080518481526020810184905281516001600160a01b038816927fdec2bacdd2f05b59de34da9b523dff8be42e5e38e818c82fdb0bae774387a724928290030190a25050505050565b600081640100000000841061228e5760405162461bcd60e51b81526020600482018181528351602484015283519092839260449091019190850190808383600083156117d65781810151838201526020016117be565b509192915050565b60408051808201909152600080825260208201529056fe44656c65676174696f6e28616464726573732064656c6567617465652c75696e74206e6f6e63652c75696e7420657870697279295065726d69742861646472657373206f776e65722c61646472657373207370656e6465722c75696e742076616c75652c75696e74206e6f6e63652c75696e7420646561646c696e6529454950373132446f6d61696e28737472696e67206e616d652c75696e7420636861696e49642c6164647265737320766572696679696e67436f6e747261637429536166654d6174683a206d756c7469706c69636174696f6e206f766572666c6f777472616e7366657246726f6d3a2065786365656473207370656e64657220616c6c6f77616e6365a265627a7a723158207bd92369061dd023400a573b5cf32737b2c2840b550531e7645a8e862ea0670564736f6c63430005110032454950373132446f6d61696e28737472696e67206e616d652c75696e7420636861696e49642c6164647265737320766572696679696e67436f6e747261637429",
  "bytecodeSha1": "da39a3ee5e6b4b0d3255bfef95601890afd80709",
  "compiler": {
    "evm_version": "istanbul",
    "optimizer": {
      "enabled": true,
      "runs": 200
    },
    "version": "0.5.17+commit.d19bba13"
  },
  "contractName": "veCurveVault",
  "language": "Solidity",
  "natspec": {
    "methods": {
      "acceptGovernance()": {
        "notice": "Allows pendingGovernance to accept their role as governance (protection pattern)"
      },
      "allowance(address,address)": {
        "notice": "Get the number of tokens `spender` is approved to spend on behalf of `account`",
        "params": {
          "account": "The address of the account holding the funds",
          "spender": "The address of the account spending the funds"
        },
        "return": "The number of tokens approved"
      },
      "approve(address,uint256)": {
        "details": "This will overwrite the approval amount for `spender` and is subject to issues noted [here](https://eips.ethereum.org/EIPS/eip-20#approve)",
        "notice": "Approve `spender` to transfer up to `amount` from `src`",
        "params": {
          "amount": "The number of tokens that are approved (2^256-1 means infinite)",
          "spender": "The address of the account which may transfer tokens"
        },
        "return": "Whether or not the approval succeeded"
      },
      "balanceOf(address)": {
        "notice": "Get the number of tokens held by the `account`",
        "params": {
          "account": "The address of the account to get the balance of"
        },
        "return": "The number of tokens held"
      },
      "delegate(address)": {
        "notice": "Delegate votes from `msg.sender` to `delegatee`",
        "params": {
          "delegatee": "The address to delegate votes to"
        }
      },
      "delegateBySig(address,uint256,uint256,uint8,bytes32,bytes32)": {
        "notice": "Delegates votes from signatory to `delegatee`",
        "params": {
          "delegatee": "The address to delegate votes to",
          "expiry": "The time at which to expire the signature",
          "nonce": "The contract state required to match the signature",
          "r": "Half of the ECDSA signature pair",
          "s": "Half of the ECDSA signature pair",
          "v": "The recovery byte of the signature"
        }
      },
      "getCurrentVotes(address)": {
        "notice": "Gets the current votes balance for `account`",
        "params": {
          "account": "The address to get votes balance"
        },
        "return": "The number of current votes for `account`"
      },
      "getPriorVotes(address,uint256)": {
        "details": "Block number must be a finalized block or else this function will revert to prevent misinformation.",
        "notice": "Determine the prior number of votes for an account as of a block number",
        "params": {
          "account": "The address of the account to check",
          "blockNumber": "The block number to get the vote balance at"
        },
        "return": "The number of votes the account had as of the given block"
      },
      "permit(address,address,uint256,uint256,uint8,bytes32,bytes32)": {
        "notice": "Triggers an approval from owner to spends",
        "params": {
          "amount": "The number of tokens that are approved (2^256-1 means infinite)",
          "deadline": "The time at which to expire the signature",
          "owner": "The address to approve from",
          "r": "Half of the ECDSA signature pair",
          "s": "Half of the ECDSA signature pair",
          "spender": "The address to be approved",
          "v": "The recovery byte of the signature"
        }
      },
      "setGovernance(address)": {
        "notice": "Allows governance to change governance (for future upgradability)",
        "params": {
          "_governance": "new governance address to set"
        }
      },
      "transfer(address,uint256)": {
        "notice": "Transfer `amount` tokens from `msg.sender` to `dst`",
        "params": {
          "amount": "The number of tokens to transfer",
          "dst": "The address of the destination account"
        },
        "return": "Whether or not the transfer succeeded"
      },
      "transferFrom(address,address,uint256)": {
        "notice": "Transfer `amount` tokens from `src` to `dst`",
        "params": {
          "amount": "The number of tokens to transfer",
          "dst": "The address of the destination account",
          "src": "The address of the source account"
        },
        "return": "Whether or not the transfer succeeded"
      }
    }
  },
  "opcodes": "PUSH1 0x80 PUSH1 0x40 MSTORE CALLVALUE DUP1 ISZERO PUSH2 0x10 JUMPI PUSH1 0x0 DUP1 REVERT JUMPDEST POP PUSH1 0x4 CALLDATASIZE LT PUSH2 0x269 JUMPI PUSH1 0x0 CALLDATALOAD PUSH1 0xE0 SHR DUP1 PUSH4 0x782D6FE1 GT PUSH2 0x151 JUMPI DUP1 PUSH4 0xB6B55F25 GT PUSH2 0xC3 JUMPI DUP1 PUSH4 0xDE5F6268 GT PUSH2 0x87 JUMPI DUP1 PUSH4 0xDE5F6268 EQ PUSH2 0x743 JUMPI DUP1 PUSH4 0xE380FCAD EQ PUSH2 0x74B JUMPI DUP1 PUSH4 0xE7A324DC EQ PUSH2 0x771 JUMPI DUP1 PUSH4 0xEC556889 EQ PUSH2 0x779 JUMPI DUP1 PUSH4 0xF1127ED8 EQ PUSH2 0x781 JUMPI DUP1 PUSH4 0xF39C38A0 EQ PUSH2 0x7D3 JUMPI PUSH2 0x269 JUMP JUMPDEST DUP1 PUSH4 0xB6B55F25 EQ PUSH2 0x63A JUMPI DUP1 PUSH4 0xC3CDA520 EQ PUSH2 0x657 JUMPI DUP1 PUSH4 0xD505ACCF EQ PUSH2 0x69E JUMPI DUP1 PUSH4 0xDD62ED3E EQ PUSH2 0x6EF JUMPI DUP1 PUSH4 0xDDEAE033 EQ PUSH2 0x71D JUMPI PUSH2 0x269 JUMP JUMPDEST DUP1 PUSH4 0x9EC5A894 GT PUSH2 0x115 JUMPI DUP1 PUSH4 0x9EC5A894 EQ PUSH2 0x5AA JUMPI DUP1 PUSH4 0xA2E62045 EQ PUSH2 0x5B2 JUMPI DUP1 PUSH4 0xA4F0D7D0 EQ PUSH2 0x5BA JUMPI DUP1 PUSH4 0xA9059CBB EQ PUSH2 0x5C2 JUMPI DUP1 PUSH4 0xAB033EA9 EQ PUSH2 0x5EE JUMPI DUP1 PUSH4 0xB4B5EA57 EQ PUSH2 0x614 JUMPI PUSH2 0x269 JUMP JUMPDEST DUP1 PUSH4 0x782D6FE1 EQ PUSH2 0x522 JUMPI DUP1 PUSH4 0x7ECEBE00 EQ PUSH2 0x54E JUMPI DUP1 PUSH4 0x945C9142 EQ PUSH2 0x574 JUMPI DUP1 PUSH4 0x95D89B41 EQ PUSH2 0x57C JUMPI DUP1 PUSH4 0x97107D6D EQ PUSH2 0x584 JUMPI PUSH2 0x269 JUMP JUMPDEST DUP1 PUSH4 0x2986C0E5 GT PUSH2 0x1EA JUMPI DUP1 PUSH4 0x4E71D92D GT PUSH2 0x1AE JUMPI DUP1 PUSH4 0x4E71D92D EQ PUSH2 0x461 JUMPI DUP1 PUSH4 0x587CDE1E EQ PUSH2 0x469 JUMPI DUP1 PUSH4 0x5AA6E675 EQ PUSH2 0x48F JUMPI DUP1 PUSH4 0x5C19A95C EQ PUSH2 0x497 JUMPI DUP1 PUSH4 0x6FCFFF45 EQ PUSH2 0x4BD JUMPI DUP1 PUSH4 0x70A08231 EQ PUSH2 0x4FC JUMPI PUSH2 0x269 JUMP JUMPDEST DUP1 PUSH4 0x2986C0E5 EQ PUSH2 0x405 JUMPI DUP1 PUSH4 0x30ADF81F EQ PUSH2 0x40D JUMPI DUP1 PUSH4 0x313CE567 EQ PUSH2 0x415 JUMPI DUP1 PUSH4 0x3D79D1C8 EQ PUSH2 0x433 JUMPI DUP1 PUSH4 0x402914F5 EQ PUSH2 0x43B JUMPI PUSH2 0x269 JUMP JUMPDEST DUP1 PUSH4 0x1919DB33 GT PUSH2 0x231 JUMPI DUP1 PUSH4 0x1919DB33 EQ PUSH2 0x375 JUMPI DUP1 PUSH4 0x20606B70 EQ PUSH2 0x39B JUMPI DUP1 PUSH4 0x238EFCBC EQ PUSH2 0x3A3 JUMPI DUP1 PUSH4 0x23B872DD EQ PUSH2 0x3AB JUMPI DUP1 PUSH4 0x2479B177 EQ PUSH2 0x3E1 JUMPI PUSH2 0x269 JUMP JUMPDEST DUP1 PUSH4 0x6FDDE03 EQ PUSH2 0x26E JUMPI DUP1 PUSH4 0x95EA7B3 EQ PUSH2 0x2EB JUMPI DUP1 PUSH4 0xE0A5968 EQ PUSH2 0x32B JUMPI DUP1 PUSH4 0x1778E29C EQ PUSH2 0x353 JUMPI DUP1 PUSH4 0x18160DDD EQ PUSH2 0x36D JUMPI JUMPDEST PUSH1 0x0 DUP1 REVERT JUMPDEST PUSH2 0x276 PUSH2 0x7DB JUMP JUMPDEST PUSH1 0x40 DUP1 MLOAD PUSH1 0x20 DUP1 DUP3 MSTORE DUP4 MLOAD DUP2 DUP4 ADD MSTORE DUP4 MLOAD SWAP2 SWAP3 DUP4 SWAP3 SWAP1 DUP4 ADD SWAP2 DUP6 ADD SWAP1 DUP1 DUP4 DUP4 PUSH1 0x0 JUMPDEST DUP4 DUP2 LT ISZERO PUSH2 0x2B0 JUMPI DUP2 DUP2 ADD MLOAD DUP4 DUP3 ADD MSTORE PUSH1 0x20 ADD PUSH2 0x298 JUMP JUMPDEST POP POP POP POP SWAP1 POP SWAP1 DUP2 ADD SWAP1 PUSH1 0x1F AND DUP1 ISZERO PUSH2 0x2DD JUMPI DUP1 DUP3 SUB DUP1 MLOAD PUSH1 0x1 DUP4 PUSH1 0x20 SUB PUSH2 0x100 EXP SUB NOT AND DUP2 MSTORE PUSH1 0x20 ADD SWAP2 POP JUMPDEST POP SWAP3 POP POP POP PUSH1 0x40 MLOAD DUP1 SWAP2 SUB SWAP1 RETURN JUMPDEST PUSH2 0x317 PUSH1 0x4 DUP1 CALLDATASIZE SUB PUSH1 0x40 DUP2 LT ISZERO PUSH2 0x301 JUMPI PUSH1 0x0 DUP1 REVERT JUMPDEST POP PUSH1 0x1 PUSH1 0x1 PUSH1 0xA0 SHL SUB DUP2 CALLDATALOAD AND SWAP1 PUSH1 0x20 ADD CALLDATALOAD PUSH2 0x807 JUMP JUMPDEST PUSH1 0x40 DUP1 MLOAD SWAP2 ISZERO ISZERO DUP3 MSTORE MLOAD SWAP1 DUP2 SWAP1 SUB PUSH1 0x20 ADD SWAP1 RETURN JUMPDEST PUSH2 0x351 PUSH1 0x4 DUP1 CALLDATASIZE SUB PUSH1 0x20 DUP2 LT ISZERO PUSH2 0x341 JUMPI PUSH1 0x0 DUP1 REVERT JUMPDEST POP CALLDATALOAD PUSH1 0x1 PUSH1 0x1 PUSH1 0xA0 SHL SUB AND PUSH2 0x86E JUMP JUMPDEST STOP JUMPDEST PUSH2 0x35B PUSH2 0x9A2 JUMP JUMPDEST PUSH1 0x40 DUP1 MLOAD SWAP2 DUP3 MSTORE MLOAD SWAP1 DUP2 SWAP1 SUB PUSH1 0x20 ADD SWAP1 RETURN JUMPDEST PUSH2 0x35B PUSH2 0x9A8 JUMP JUMPDEST PUSH2 0x351 PUSH1 0x4 DUP1 CALLDATASIZE SUB PUSH1 0x20 DUP2 LT ISZERO PUSH2 0x38B JUMPI PUSH1 0x0 DUP1 REVERT JUMPDEST POP CALLDATALOAD PUSH1 0x1 PUSH1 0x1 PUSH1 0xA0 SHL SUB AND PUSH2 0x9AE JUMP JUMPDEST PUSH2 0x35B PUSH2 0xA25 JUMP JUMPDEST PUSH2 0x351 PUSH2 0xA41 JUMP JUMPDEST PUSH2 0x317 PUSH1 0x4 DUP1 CALLDATASIZE SUB PUSH1 0x60 DUP2 LT ISZERO PUSH2 0x3C1 JUMPI PUSH1 0x0 DUP1 REVERT JUMPDEST POP PUSH1 0x1 PUSH1 0x1 PUSH1 0xA0 SHL SUB DUP2 CALLDATALOAD DUP2 AND SWAP2 PUSH1 0x20 DUP2 ADD CALLDATALOAD SWAP1 SWAP2 AND SWAP1 PUSH1 0x40 ADD CALLDATALOAD PUSH2 0xAC4 JUMP JUMPDEST PUSH2 0x3E9 PUSH2 0xBAC JUMP JUMPDEST PUSH1 0x40 DUP1 MLOAD PUSH1 0x1 PUSH1 0x1 PUSH1 0xA0 SHL SUB SWAP1 SWAP3 AND DUP3 MSTORE MLOAD SWAP1 DUP2 SWAP1 SUB PUSH1 0x20 ADD SWAP1 RETURN JUMPDEST PUSH2 0x35B PUSH2 0xBBB JUMP JUMPDEST PUSH2 0x35B PUSH2 0xBC1 JUMP JUMPDEST PUSH2 0x41D PUSH2 0xBDC JUMP JUMPDEST PUSH1 0x40 DUP1 MLOAD PUSH1 0xFF SWAP1 SWAP3 AND DUP3 MSTORE MLOAD SWAP1 DUP2 SWAP1 SUB PUSH1 0x20 ADD SWAP1 RETURN JUMPDEST PUSH2 0x35B PUSH2 0xBE1 JUMP JUMPDEST PUSH2 0x35B PUSH1 0x4 DUP1 CALLDATASIZE SUB PUSH1 0x20 DUP2 LT ISZERO PUSH2 0x451 JUMPI PUSH1 0x0 DUP1 REVERT JUMPDEST POP CALLDATALOAD PUSH1 0x1 PUSH1 0x1 PUSH1 0xA0 SHL SUB AND PUSH2 0xBE7 JUMP JUMPDEST PUSH2 0x351 PUSH2 0xBF9 JUMP JUMPDEST PUSH2 0x3E9 PUSH1 0x4 DUP1 CALLDATASIZE SUB PUSH1 0x20 DUP2 LT ISZERO PUSH2 0x47F JUMPI PUSH1 0x0 DUP1 REVERT JUMPDEST POP CALLDATALOAD PUSH1 0x1 PUSH1 0x1 PUSH1 0xA0 SHL SUB AND PUSH2 0xC04 JUMP JUMPDEST PUSH2 0x3E9 PUSH2 0xC1F JUMP JUMPDEST PUSH2 0x351 PUSH1 0x4 DUP1 CALLDATASIZE SUB PUSH1 0x20 DUP2 LT ISZERO PUSH2 0x4AD JUMPI PUSH1 0x0 DUP1 REVERT JUMPDEST POP CALLDATALOAD PUSH1 0x1 PUSH1 0x1 PUSH1 0xA0 SHL SUB AND PUSH2 0xC2E JUMP JUMPDEST PUSH2 0x4E3 PUSH1 0x4 DUP1 CALLDATASIZE SUB PUSH1 0x20 DUP2 LT ISZERO PUSH2 0x4D3 JUMPI PUSH1 0x0 DUP1 REVERT JUMPDEST POP CALLDATALOAD PUSH1 0x1 PUSH1 0x1 PUSH1 0xA0 SHL SUB AND PUSH2 0xC3B JUMP JUMPDEST PUSH1 0x40 DUP1 MLOAD PUSH4 0xFFFFFFFF SWAP1 SWAP3 AND DUP3 MSTORE MLOAD SWAP1 DUP2 SWAP1 SUB PUSH1 0x20 ADD SWAP1 RETURN JUMPDEST PUSH2 0x35B PUSH1 0x4 DUP1 CALLDATASIZE SUB PUSH1 0x20 DUP2 LT ISZERO PUSH2 0x512 JUMPI PUSH1 0x0 DUP1 REVERT JUMPDEST POP CALLDATALOAD PUSH1 0x1 PUSH1 0x1 PUSH1 0xA0 SHL SUB AND PUSH2 0xC53 JUMP JUMPDEST PUSH2 0x35B PUSH1 0x4 DUP1 CALLDATASIZE SUB PUSH1 0x40 DUP2 LT ISZERO PUSH2 0x538 JUMPI PUSH1 0x0 DUP1 REVERT JUMPDEST POP PUSH1 0x1 PUSH1 0x1 PUSH1 0xA0 SHL SUB DUP2 CALLDATALOAD AND SWAP1 PUSH1 0x20 ADD CALLDATALOAD PUSH2 0xC6E JUMP JUMPDEST PUSH2 0x35B PUSH1 0x4 DUP1 CALLDATASIZE SUB PUSH1 0x20 DUP2 LT ISZERO PUSH2 0x564 JUMPI PUSH1 0x0 DUP1 REVERT JUMPDEST POP CALLDATALOAD PUSH1 0x1 PUSH1 0x1 PUSH1 0xA0 SHL SUB AND PUSH2 0xE7D JUMP JUMPDEST PUSH2 0x3E9 PUSH2 0xE8F JUMP JUMPDEST PUSH2 0x276 PUSH2 0xEA7 JUMP JUMPDEST PUSH2 0x351 PUSH1 0x4 DUP1 CALLDATASIZE SUB PUSH1 0x20 DUP2 LT ISZERO PUSH2 0x59A JUMPI PUSH1 0x0 DUP1 REVERT JUMPDEST POP CALLDATALOAD PUSH1 0x1 PUSH1 0x1 PUSH1 0xA0 SHL SUB AND PUSH2 0xECD JUMP JUMPDEST PUSH2 0x3E9 PUSH2 0xF44 JUMP JUMPDEST PUSH2 0x351 PUSH2 0xF5C JUMP JUMPDEST PUSH2 0x3E9 PUSH2 0xF64 JUMP JUMPDEST PUSH2 0x317 PUSH1 0x4 DUP1 CALLDATASIZE SUB PUSH1 0x40 DUP2 LT ISZERO PUSH2 0x5D8 JUMPI PUSH1 0x0 DUP1 REVERT JUMPDEST POP PUSH1 0x1 PUSH1 0x1 PUSH1 0xA0 SHL SUB DUP2 CALLDATALOAD AND SWAP1 PUSH1 0x20 ADD CALLDATALOAD PUSH2 0xF7C JUMP JUMPDEST PUSH2 0x351 PUSH1 0x4 DUP1 CALLDATASIZE SUB PUSH1 0x20 DUP2 LT ISZERO PUSH2 0x604 JUMPI PUSH1 0x0 DUP1 REVERT JUMPDEST POP CALLDATALOAD PUSH1 0x1 PUSH1 0x1 PUSH1 0xA0 SHL SUB AND PUSH2 0xF92 JUMP JUMPDEST PUSH2 0x35B PUSH1 0x4 DUP1 CALLDATASIZE SUB PUSH1 0x20 DUP2 LT ISZERO PUSH2 0x62A JUMPI PUSH1 0x0 DUP1 REVERT JUMPDEST POP CALLDATALOAD PUSH1 0x1 PUSH1 0x1 PUSH1 0xA0 SHL SUB AND PUSH2 0x1009 JUMP JUMPDEST PUSH2 0x351 PUSH1 0x4 DUP1 CALLDATASIZE SUB PUSH1 0x20 DUP2 LT ISZERO PUSH2 0x650 JUMPI PUSH1 0x0 DUP1 REVERT JUMPDEST POP CALLDATALOAD PUSH2 0x106D JUMP JUMPDEST PUSH2 0x351 PUSH1 0x4 DUP1 CALLDATASIZE SUB PUSH1 0xC0 DUP2 LT ISZERO PUSH2 0x66D JUMPI PUSH1 0x0 DUP1 REVERT JUMPDEST POP PUSH1 0x1 PUSH1 0x1 PUSH1 0xA0 SHL SUB DUP2 CALLDATALOAD AND SWAP1 PUSH1 0x20 DUP2 ADD CALLDATALOAD SWAP1 PUSH1 0x40 DUP2 ADD CALLDATALOAD SWAP1 PUSH1 0xFF PUSH1 0x60 DUP3 ADD CALLDATALOAD AND SWAP1 PUSH1 0x80 DUP2 ADD CALLDATALOAD SWAP1 PUSH1 0xA0 ADD CALLDATALOAD PUSH2 0x1076 JUMP JUMPDEST PUSH2 0x351 PUSH1 0x4 DUP1 CALLDATASIZE SUB PUSH1 0xE0 DUP2 LT ISZERO PUSH2 0x6B4 JUMPI PUSH1 0x0 DUP1 REVERT JUMPDEST POP PUSH1 0x1 PUSH1 0x1 PUSH1 0xA0 SHL SUB DUP2 CALLDATALOAD DUP2 AND SWAP2 PUSH1 0x20 DUP2 ADD CALLDATALOAD SWAP1 SWAP2 AND SWAP1 PUSH1 0x40 DUP2 ADD CALLDATALOAD SWAP1 PUSH1 0x60 DUP2 ADD CALLDATALOAD SWAP1 PUSH1 0xFF PUSH1 0x80 DUP3 ADD CALLDATALOAD AND SWAP1 PUSH1 0xA0 DUP2 ADD CALLDATALOAD SWAP1 PUSH1 0xC0 ADD CALLDATALOAD PUSH2 0x1290 JUMP JUMPDEST PUSH2 0x35B PUSH1 0x4 DUP1 CALLDATASIZE SUB PUSH1 0x40 DUP2 LT ISZERO PUSH2 0x705 JUMPI PUSH1 0x0 DUP1 REVERT JUMPDEST POP PUSH1 0x1 PUSH1 0x1 PUSH1 0xA0 SHL SUB DUP2 CALLDATALOAD DUP2 AND SWAP2 PUSH1 0x20 ADD CALLDATALOAD AND PUSH2 0x1512 JUMP JUMPDEST PUSH2 0x351 PUSH1 0x4 DUP1 CALLDATASIZE SUB PUSH1 0x20 DUP2 LT ISZERO PUSH2 0x733 JUMPI PUSH1 0x0 DUP1 REVERT JUMPDEST POP CALLDATALOAD PUSH1 0x1 PUSH1 0x1 PUSH1 0xA0 SHL SUB AND PUSH2 0x153D JUMP JUMPDEST PUSH2 0x351 PUSH2 0x1546 JUMP JUMPDEST PUSH2 0x35B PUSH1 0x4 DUP1 CALLDATASIZE SUB PUSH1 0x20 DUP2 LT ISZERO PUSH2 0x761 JUMPI PUSH1 0x0 DUP1 REVERT JUMPDEST POP CALLDATALOAD PUSH1 0x1 PUSH1 0x1 PUSH1 0xA0 SHL SUB AND PUSH2 0x15CD JUMP JUMPDEST PUSH2 0x35B PUSH2 0x15DF JUMP JUMPDEST PUSH2 0x3E9 PUSH2 0x15FA JUMP JUMPDEST PUSH2 0x7B3 PUSH1 0x4 DUP1 CALLDATASIZE SUB PUSH1 0x40 DUP2 LT ISZERO PUSH2 0x797 JUMPI PUSH1 0x0 DUP1 REVERT JUMPDEST POP DUP1 CALLDATALOAD PUSH1 0x1 PUSH1 0x1 PUSH1 0xA0 SHL SUB AND SWAP1 PUSH1 0x20 ADD CALLDATALOAD PUSH4 0xFFFFFFFF AND PUSH2 0x1609 JUMP JUMPDEST PUSH1 0x40 DUP1 MLOAD PUSH4 0xFFFFFFFF SWAP1 SWAP4 AND DUP4 MSTORE PUSH1 0x20 DUP4 ADD SWAP2 SWAP1 SWAP2 MSTORE DUP1 MLOAD SWAP2 DUP3 SWAP1 SUB ADD SWAP1 RETURN JUMPDEST PUSH2 0x3E9 PUSH2 0x1636 JUMP JUMPDEST PUSH1 0x40 MLOAD DUP1 PUSH1 0x40 ADD PUSH1 0x40 MSTORE DUP1 PUSH1 0x10 DUP2 MSTORE PUSH1 0x20 ADD PUSH16 0x1D9950D4958B511053C81E55985D5B1D PUSH1 0x82 SHL DUP2 MSTORE POP DUP2 JUMP JUMPDEST CALLER PUSH1 0x0 DUP2 DUP2 MSTORE PUSH1 0x4 PUSH1 0x20 SWAP1 DUP2 MSTORE PUSH1 0x40 DUP1 DUP4 KECCAK256 PUSH1 0x1 PUSH1 0x1 PUSH1 0xA0 SHL SUB DUP8 AND DUP1 DUP6 MSTORE SWAP1 DUP4 MSTORE DUP2 DUP5 KECCAK256 DUP7 SWAP1 SSTORE DUP2 MLOAD DUP7 DUP2 MSTORE SWAP2 MLOAD SWAP4 SWAP5 SWAP1 SWAP4 SWAP1 SWAP3 PUSH32 0x8C5BE1E5EBEC7D5BD14F71427D1E84F3DD0314C0F7B2291E5B200AC8C7C3B925 SWAP3 DUP3 SWAP1 SUB ADD SWAP1 LOG3 POP PUSH1 0x1 JUMPDEST SWAP3 SWAP2 POP POP JUMP JUMPDEST PUSH2 0x876 PUSH2 0x1645 JUMP JUMPDEST PUSH1 0x1 PUSH1 0x1 PUSH1 0xA0 SHL SUB DUP2 AND PUSH1 0x0 SWAP1 DUP2 MSTORE PUSH1 0x5 PUSH1 0x20 MSTORE PUSH1 0x40 SWAP1 KECCAK256 SLOAD DUP1 ISZERO PUSH2 0x981 JUMPI PUSH1 0x1 PUSH1 0x1 PUSH1 0xA0 SHL SUB DUP3 AND PUSH1 0x0 SWAP1 DUP2 MSTORE PUSH1 0xE PUSH1 0x20 SWAP1 DUP2 MSTORE PUSH1 0x40 DUP1 DUP4 KECCAK256 DUP1 SLOAD PUSH1 0xC SLOAD SWAP2 DUP3 SWAP1 SSTORE DUP3 MLOAD DUP1 DUP5 ADD SWAP1 SWAP4 MSTORE PUSH1 0x1D DUP4 MSTORE PUSH32 0x76654352563A3A5F636C61696D466F723A20696E6465782064656C7461000000 SWAP4 DUP4 ADD SWAP4 SWAP1 SWAP4 MSTORE SWAP2 SWAP3 SWAP2 PUSH2 0x901 SWAP2 DUP5 SWAP1 PUSH4 0xFFFFFFFF PUSH2 0x1782 AND JUMP JUMPDEST SWAP1 POP DUP1 ISZERO PUSH2 0x97A JUMPI PUSH1 0x0 PUSH2 0x933 PUSH8 0xDE0B6B3A7640000 PUSH2 0x927 DUP7 DUP6 PUSH4 0xFFFFFFFF PUSH2 0x1819 AND JUMP JUMPDEST SWAP1 PUSH4 0xFFFFFFFF PUSH2 0x1872 AND JUMP JUMPDEST PUSH1 0x1 PUSH1 0x1 PUSH1 0xA0 SHL SUB DUP7 AND PUSH1 0x0 SWAP1 DUP2 MSTORE PUSH1 0xF PUSH1 0x20 MSTORE PUSH1 0x40 SWAP1 KECCAK256 SLOAD SWAP1 SWAP2 POP PUSH2 0x95F SWAP1 DUP3 PUSH4 0xFFFFFFFF PUSH2 0x18B4 AND JUMP JUMPDEST PUSH1 0x1 PUSH1 0x1 PUSH1 0xA0 SHL SUB DUP7 AND PUSH1 0x0 SWAP1 DUP2 MSTORE PUSH1 0xF PUSH1 0x20 MSTORE PUSH1 0x40 SWAP1 KECCAK256 SSTORE POP JUMPDEST POP POP PUSH2 0x99E JUMP JUMPDEST PUSH1 0xC SLOAD PUSH1 0x1 PUSH1 0x1 PUSH1 0xA0 SHL SUB DUP4 AND PUSH1 0x0 SWAP1 DUP2 MSTORE PUSH1 0xE PUSH1 0x20 MSTORE PUSH1 0x40 SWAP1 KECCAK256 SSTORE JUMPDEST POP POP JUMP JUMPDEST PUSH1 0x6 SLOAD DUP2 JUMP JUMPDEST PUSH1 0x0 SLOAD DUP2 JUMP JUMPDEST PUSH1 0x8 SLOAD PUSH1 0x1 PUSH1 0x1 PUSH1 0xA0 SHL SUB AND CALLER EQ PUSH2 0xA03 JUMPI PUSH1 0x40 DUP1 MLOAD PUSH3 0x461BCD PUSH1 0xE5 SHL DUP2 MSTORE PUSH1 0x20 PUSH1 0x4 DUP3 ADD MSTORE PUSH1 0x13 PUSH1 0x24 DUP3 ADD MSTORE PUSH19 0x39B2BA23B7BB32B93730B731B29D1010B3B7BB PUSH1 0x69 SHL PUSH1 0x44 DUP3 ADD MSTORE SWAP1 MLOAD SWAP1 DUP2 SWAP1 SUB PUSH1 0x64 ADD SWAP1 REVERT JUMPDEST PUSH1 0xB DUP1 SLOAD PUSH1 0x1 PUSH1 0x1 PUSH1 0xA0 SHL SUB NOT AND PUSH1 0x1 PUSH1 0x1 PUSH1 0xA0 SHL SUB SWAP3 SWAP1 SWAP3 AND SWAP2 SWAP1 SWAP2 OR SWAP1 SSTORE JUMP JUMPDEST PUSH1 0x40 MLOAD DUP1 DUP1 PUSH2 0x232B PUSH1 0x40 SWAP2 CODECOPY PUSH1 0x40 ADD SWAP1 POP PUSH1 0x40 MLOAD DUP1 SWAP2 SUB SWAP1 KECCAK256 DUP2 JUMP JUMPDEST PUSH1 0x9 SLOAD PUSH1 0x1 PUSH1 0x1 PUSH1 0xA0 SHL SUB AND CALLER EQ PUSH2 0xAA0 JUMPI PUSH1 0x40 DUP1 MLOAD PUSH3 0x461BCD PUSH1 0xE5 SHL DUP2 MSTORE PUSH1 0x20 PUSH1 0x4 DUP3 ADD MSTORE PUSH1 0x1D PUSH1 0x24 DUP3 ADD MSTORE PUSH32 0x616363657074476F7665726E616E63653A202170656E64696E67476F76000000 PUSH1 0x44 DUP3 ADD MSTORE SWAP1 MLOAD SWAP1 DUP2 SWAP1 SUB PUSH1 0x64 ADD SWAP1 REVERT JUMPDEST PUSH1 0x9 SLOAD PUSH1 0x8 DUP1 SLOAD PUSH1 0x1 PUSH1 0x1 PUSH1 0xA0 SHL SUB NOT AND PUSH1 0x1 PUSH1 0x1 PUSH1 0xA0 SHL SUB SWAP1 SWAP3 AND SWAP2 SWAP1 SWAP2 OR SWAP1 SSTORE JUMP JUMPDEST PUSH1 0x1 PUSH1 0x1 PUSH1 0xA0 SHL SUB DUP4 AND PUSH1 0x0 DUP2 DUP2 MSTORE PUSH1 0x4 PUSH1 0x20 SWAP1 DUP2 MSTORE PUSH1 0x40 DUP1 DUP4 KECCAK256 CALLER DUP1 DUP6 MSTORE SWAP3 MSTORE DUP3 KECCAK256 SLOAD SWAP2 SWAP3 SWAP1 SWAP2 SWAP1 DUP3 EQ DUP1 ISZERO SWAP1 PUSH2 0xAFE JUMPI POP PUSH1 0x0 NOT DUP2 EQ ISZERO JUMPDEST ISZERO PUSH2 0xB95 JUMPI PUSH1 0x0 PUSH2 0xB30 DUP6 PUSH1 0x40 MLOAD DUP1 PUSH1 0x60 ADD PUSH1 0x40 MSTORE DUP1 PUSH1 0x27 DUP2 MSTORE PUSH1 0x20 ADD PUSH2 0x238C PUSH1 0x27 SWAP2 CODECOPY DUP5 SWAP2 SWAP1 PUSH4 0xFFFFFFFF PUSH2 0x1782 AND JUMP JUMPDEST PUSH1 0x1 PUSH1 0x1 PUSH1 0xA0 SHL SUB DUP1 DUP10 AND PUSH1 0x0 DUP2 DUP2 MSTORE PUSH1 0x4 PUSH1 0x20 SWAP1 DUP2 MSTORE PUSH1 0x40 DUP1 DUP4 KECCAK256 SWAP5 DUP10 AND DUP1 DUP5 MSTORE SWAP5 DUP3 MSTORE SWAP2 DUP3 SWAP1 KECCAK256 DUP6 SWAP1 SSTORE DUP2 MLOAD DUP6 DUP2 MSTORE SWAP2 MLOAD SWAP5 SWAP6 POP SWAP3 SWAP4 SWAP2 SWAP3 PUSH32 0x8C5BE1E5EBEC7D5BD14F71427D1E84F3DD0314C0F7B2291E5B200AC8C7C3B925 SWAP3 SWAP2 DUP3 SWAP1 SUB ADD SWAP1 LOG3 POP JUMPDEST PUSH2 0xBA0 DUP7 DUP7 DUP7 PUSH2 0x190E JUMP JUMPDEST POP PUSH1 0x1 SWAP6 SWAP5 POP POP POP POP POP JUMP JUMPDEST PUSH1 0xB SLOAD PUSH1 0x1 PUSH1 0x1 PUSH1 0xA0 SHL SUB AND DUP2 JUMP JUMPDEST PUSH1 0xC SLOAD DUP2 JUMP JUMPDEST PUSH1 0x40 MLOAD DUP1 PUSH1 0x49 PUSH2 0x22E2 DUP3 CODECOPY PUSH1 0x49 ADD SWAP1 POP PUSH1 0x40 MLOAD DUP1 SWAP2 SUB SWAP1 KECCAK256 DUP2 JUMP JUMPDEST PUSH1 0x12 DUP2 JUMP JUMPDEST PUSH1 0xD SLOAD DUP2 JUMP JUMPDEST PUSH1 0xF PUSH1 0x20 MSTORE PUSH1 0x0 SWAP1 DUP2 MSTORE PUSH1 0x40 SWAP1 KECCAK256 SLOAD DUP2 JUMP JUMPDEST PUSH2 0xC02 CALLER PUSH2 0x1AC4 JUMP JUMPDEST JUMP JUMPDEST PUSH1 0x1 PUSH1 0x20 MSTORE PUSH1 0x0 SWAP1 DUP2 MSTORE PUSH1 0x40 SWAP1 KECCAK256 SLOAD PUSH1 0x1 PUSH1 0x1 PUSH1 0xA0 SHL SUB AND DUP2 JUMP JUMPDEST PUSH1 0x8 SLOAD PUSH1 0x1 PUSH1 0x1 PUSH1 0xA0 SHL SUB AND DUP2 JUMP JUMPDEST PUSH2 0xC38 CALLER DUP3 PUSH2 0x1C06 JUMP JUMPDEST POP JUMP JUMPDEST PUSH1 0x3 PUSH1 0x20 MSTORE PUSH1 0x0 SWAP1 DUP2 MSTORE PUSH1 0x40 SWAP1 KECCAK256 SLOAD PUSH4 0xFFFFFFFF AND DUP2 JUMP JUMPDEST PUSH1 0x1 PUSH1 0x1 PUSH1 0xA0 SHL SUB AND PUSH1 0x0 SWAP1 DUP2 MSTORE PUSH1 0x5 PUSH1 0x20 MSTORE PUSH1 0x40 SWAP1 KECCAK256 SLOAD SWAP1 JUMP JUMPDEST PUSH1 0x0 NUMBER DUP3 LT PUSH2 0xCB5 JUMPI PUSH1 0x40 DUP1 MLOAD PUSH3 0x461BCD PUSH1 0xE5 SHL DUP2 MSTORE PUSH1 0x20 PUSH1 0x4 DUP3 ADD MSTORE PUSH1 0xE PUSH1 0x24 DUP3 ADD MSTORE PUSH14 0x33B2BA283934B7B92B37BA32B99D PUSH1 0x91 SHL PUSH1 0x44 DUP3 ADD MSTORE SWAP1 MLOAD SWAP1 DUP2 SWAP1 SUB PUSH1 0x64 ADD SWAP1 REVERT JUMPDEST PUSH1 0x1 PUSH1 0x1 PUSH1 0xA0 SHL SUB DUP4 AND PUSH1 0x0 SWAP1 DUP2 MSTORE PUSH1 0x3 PUSH1 0x20 MSTORE PUSH1 0x40 SWAP1 KECCAK256 SLOAD PUSH4 0xFFFFFFFF AND DUP1 PUSH2 0xCE3 JUMPI PUSH1 0x0 SWAP2 POP POP PUSH2 0x868 JUMP JUMPDEST PUSH1 0x1 PUSH1 0x1 PUSH1 0xA0 SHL SUB DUP5 AND PUSH1 0x0 SWAP1 DUP2 MSTORE PUSH1 0x2 PUSH1 0x20 SWAP1 DUP2 MSTORE PUSH1 0x40 DUP1 DUP4 KECCAK256 PUSH4 0xFFFFFFFF PUSH1 0x0 NOT DUP7 ADD DUP2 AND DUP6 MSTORE SWAP3 MSTORE SWAP1 SWAP2 KECCAK256 SLOAD AND DUP4 LT PUSH2 0xD52 JUMPI PUSH1 0x1 PUSH1 0x1 PUSH1 0xA0 SHL SUB DUP5 AND PUSH1 0x0 SWAP1 DUP2 MSTORE PUSH1 0x2 PUSH1 0x20 SWAP1 DUP2 MSTORE PUSH1 0x40 DUP1 DUP4 KECCAK256 PUSH1 0x0 NOT SWAP5 SWAP1 SWAP5 ADD PUSH4 0xFFFFFFFF AND DUP4 MSTORE SWAP3 SWAP1 MSTORE KECCAK256 PUSH1 0x1 ADD SLOAD SWAP1 POP PUSH2 0x868 JUMP JUMPDEST PUSH1 0x1 PUSH1 0x1 PUSH1 0xA0 SHL SUB DUP5 AND PUSH1 0x0 SWAP1 DUP2 MSTORE PUSH1 0x2 PUSH1 0x20 SWAP1 DUP2 MSTORE PUSH1 0x40 DUP1 DUP4 KECCAK256 DUP4 DUP1 MSTORE SWAP1 SWAP2 MSTORE SWAP1 KECCAK256 SLOAD PUSH4 0xFFFFFFFF AND DUP4 LT ISZERO PUSH2 0xD8D JUMPI PUSH1 0x0 SWAP2 POP POP PUSH2 0x868 JUMP JUMPDEST PUSH1 0x0 PUSH1 0x0 NOT DUP3 ADD JUMPDEST DUP2 PUSH4 0xFFFFFFFF AND DUP2 PUSH4 0xFFFFFFFF AND GT ISZERO PUSH2 0xE46 JUMPI PUSH1 0x2 DUP3 DUP3 SUB PUSH4 0xFFFFFFFF AND DIV DUP2 SUB PUSH2 0xDBF PUSH2 0x2296 JUMP JUMPDEST POP PUSH1 0x1 PUSH1 0x1 PUSH1 0xA0 SHL SUB DUP8 AND PUSH1 0x0 SWAP1 DUP2 MSTORE PUSH1 0x2 PUSH1 0x20 SWAP1 DUP2 MSTORE PUSH1 0x40 DUP1 DUP4 KECCAK256 PUSH4 0xFFFFFFFF DUP1 DUP7 AND DUP6 MSTORE SWAP1 DUP4 MSTORE SWAP3 DUP2 SWAP1 KECCAK256 DUP2 MLOAD DUP1 DUP4 ADD SWAP1 SWAP3 MSTORE DUP1 SLOAD SWAP1 SWAP4 AND DUP1 DUP3 MSTORE PUSH1 0x1 SWAP1 SWAP4 ADD SLOAD SWAP2 DUP2 ADD SWAP2 SWAP1 SWAP2 MSTORE SWAP1 DUP8 EQ ISZERO PUSH2 0xE21 JUMPI PUSH1 0x20 ADD MLOAD SWAP5 POP PUSH2 0x868 SWAP4 POP POP POP POP JUMP JUMPDEST DUP1 MLOAD PUSH4 0xFFFFFFFF AND DUP8 GT ISZERO PUSH2 0xE38 JUMPI DUP2 SWAP4 POP PUSH2 0xE3F JUMP JUMPDEST PUSH1 0x1 DUP3 SUB SWAP3 POP JUMPDEST POP POP PUSH2 0xD95 JUMP JUMPDEST POP PUSH1 0x1 PUSH1 0x1 PUSH1 0xA0 SHL SUB DUP6 AND PUSH1 0x0 SWAP1 DUP2 MSTORE PUSH1 0x2 PUSH1 0x20 SWAP1 DUP2 MSTORE PUSH1 0x40 DUP1 DUP4 KECCAK256 PUSH4 0xFFFFFFFF SWAP1 SWAP5 AND DUP4 MSTORE SWAP3 SWAP1 MSTORE KECCAK256 PUSH1 0x1 ADD SLOAD SWAP2 POP POP SWAP3 SWAP2 POP POP JUMP JUMPDEST PUSH1 0x7 PUSH1 0x20 MSTORE PUSH1 0x0 SWAP1 DUP2 MSTORE PUSH1 0x40 SWAP1 KECCAK256 SLOAD DUP2 JUMP JUMPDEST PUSH20 0xD533A949740BB3306D119CC777FA900BA034CD52 DUP2 JUMP JUMPDEST PUSH1 0x40 MLOAD DUP1 PUSH1 0x40 ADD PUSH1 0x40 MSTORE DUP1 PUSH1 0xA DUP2 MSTORE PUSH1 0x20 ADD PUSH10 0x7976654352562D44414F PUSH1 0xB0 SHL DUP2 MSTORE POP DUP2 JUMP JUMPDEST PUSH1 0x8 SLOAD PUSH1 0x1 PUSH1 0x1 PUSH1 0xA0 SHL SUB AND CALLER EQ PUSH2 0xF22 JUMPI PUSH1 0x40 DUP1 MLOAD PUSH3 0x461BCD PUSH1 0xE5 SHL DUP2 MSTORE PUSH1 0x20 PUSH1 0x4 DUP3 ADD MSTORE PUSH1 0x13 PUSH1 0x24 DUP3 ADD MSTORE PUSH19 0x39B2BA23B7BB32B93730B731B29D1010B3B7BB PUSH1 0x69 SHL PUSH1 0x44 DUP3 ADD MSTORE SWAP1 MLOAD SWAP1 DUP2 SWAP1 SUB PUSH1 0x64 ADD SWAP1 REVERT JUMPDEST PUSH1 0xA DUP1 SLOAD PUSH1 0x1 PUSH1 0x1 PUSH1 0xA0 SHL SUB NOT AND PUSH1 0x1 PUSH1 0x1 PUSH1 0xA0 SHL SUB SWAP3 SWAP1 SWAP3 AND SWAP2 SWAP1 SWAP2 OR SWAP1 SSTORE JUMP JUMPDEST PUSH20 0x6C3F90F043A72FA612CBAC8115EE7E52BDE6E490 DUP2 JUMP JUMPDEST PUSH2 0xC02 PUSH2 0x1645 JUMP JUMPDEST PUSH20 0xF147B8125D2EF93FB6965DB97D6746952A133934 DUP2 JUMP JUMPDEST PUSH1 0x0 PUSH2 0xF89 CALLER DUP5 DUP5 PUSH2 0x190E JUMP JUMPDEST POP PUSH1 0x1 SWAP3 SWAP2 POP POP JUMP JUMPDEST PUSH1 0x8 SLOAD PUSH1 0x1 PUSH1 0x1 PUSH1 0xA0 SHL SUB AND CALLER EQ PUSH2 0xFE7 JUMPI PUSH1 0x40 DUP1 MLOAD PUSH3 0x461BCD PUSH1 0xE5 SHL DUP2 MSTORE PUSH1 0x20 PUSH1 0x4 DUP3 ADD MSTORE PUSH1 0x13 PUSH1 0x24 DUP3 ADD MSTORE PUSH19 0x39B2BA23B7BB32B93730B731B29D1010B3B7BB PUSH1 0x69 SHL PUSH1 0x44 DUP3 ADD MSTORE SWAP1 MLOAD SWAP1 DUP2 SWAP1 SUB PUSH1 0x64 ADD SWAP1 REVERT JUMPDEST PUSH1 0x9 DUP1 SLOAD PUSH1 0x1 PUSH1 0x1 PUSH1 0xA0 SHL SUB NOT AND PUSH1 0x1 PUSH1 0x1 PUSH1 0xA0 SHL SUB SWAP3 SWAP1 SWAP3 AND SWAP2 SWAP1 SWAP2 OR SWAP1 SSTORE JUMP JUMPDEST PUSH1 0x1 PUSH1 0x1 PUSH1 0xA0 SHL SUB DUP2 AND PUSH1 0x0 SWAP1 DUP2 MSTORE PUSH1 0x3 PUSH1 0x20 MSTORE PUSH1 0x40 DUP2 KECCAK256 SLOAD PUSH4 0xFFFFFFFF AND DUP1 PUSH2 0x1034 JUMPI PUSH1 0x0 PUSH2 0x1066 JUMP JUMPDEST PUSH1 0x1 PUSH1 0x1 PUSH1 0xA0 SHL SUB DUP4 AND PUSH1 0x0 SWAP1 DUP2 MSTORE PUSH1 0x2 PUSH1 0x20 SWAP1 DUP2 MSTORE PUSH1 0x40 DUP1 DUP4 KECCAK256 PUSH4 0xFFFFFFFF PUSH1 0x0 NOT DUP7 ADD AND DUP5 MSTORE SWAP1 SWAP2 MSTORE SWAP1 KECCAK256 PUSH1 0x1 ADD SLOAD JUMPDEST SWAP4 SWAP3 POP POP POP JUMP JUMPDEST PUSH2 0xC38 DUP2 PUSH2 0x1C86 JUMP JUMPDEST PUSH1 0x0 PUSH1 0x40 MLOAD DUP1 DUP1 PUSH2 0x22AE PUSH1 0x34 SWAP2 CODECOPY PUSH1 0x40 DUP1 MLOAD SWAP2 DUP3 SWAP1 SUB PUSH1 0x34 ADD DUP3 KECCAK256 PUSH1 0x20 DUP1 DUP5 ADD SWAP2 SWAP1 SWAP2 MSTORE PUSH1 0x1 PUSH1 0x1 PUSH1 0xA0 SHL SUB DUP12 AND DUP4 DUP4 ADD MSTORE PUSH1 0x60 DUP4 ADD DUP11 SWAP1 MSTORE PUSH1 0x80 DUP1 DUP5 ADD DUP11 SWAP1 MSTORE DUP3 MLOAD DUP1 DUP6 SUB SWAP1 SWAP2 ADD DUP2 MSTORE PUSH1 0xA0 DUP5 ADD DUP4 MSTORE DUP1 MLOAD SWAP1 DUP3 ADD KECCAK256 PUSH1 0x6 SLOAD PUSH2 0x1901 PUSH1 0xF0 SHL PUSH1 0xC0 DUP7 ADD MSTORE PUSH1 0xC2 DUP6 ADD MSTORE PUSH1 0xE2 DUP1 DUP6 ADD DUP3 SWAP1 MSTORE DUP4 MLOAD DUP1 DUP7 SUB SWAP1 SWAP2 ADD DUP2 MSTORE PUSH2 0x102 DUP6 ADD DUP1 DUP6 MSTORE DUP2 MLOAD SWAP2 DUP5 ADD SWAP2 SWAP1 SWAP2 KECCAK256 PUSH1 0x0 SWAP2 DUP3 SWAP1 MSTORE PUSH2 0x122 DUP7 ADD DUP1 DUP7 MSTORE DUP2 SWAP1 MSTORE PUSH1 0xFF DUP12 AND PUSH2 0x142 DUP8 ADD MSTORE PUSH2 0x162 DUP7 ADD DUP11 SWAP1 MSTORE PUSH2 0x182 DUP7 ADD DUP10 SWAP1 MSTORE SWAP4 MLOAD SWAP2 SWAP7 POP SWAP3 SWAP5 POP SWAP2 SWAP3 PUSH1 0x1 SWAP3 PUSH2 0x1A2 DUP1 DUP4 ADD SWAP4 SWAP3 PUSH1 0x1F NOT DUP4 ADD SWAP3 SWAP1 DUP2 SWAP1 SUB SWAP1 SWAP2 ADD SWAP1 DUP6 GAS STATICCALL ISZERO DUP1 ISZERO PUSH2 0x1165 JUMPI RETURNDATASIZE PUSH1 0x0 DUP1 RETURNDATACOPY RETURNDATASIZE PUSH1 0x0 REVERT JUMPDEST POP POP PUSH1 0x40 MLOAD PUSH1 0x1F NOT ADD MLOAD SWAP2 POP POP PUSH1 0x1 PUSH1 0x1 PUSH1 0xA0 SHL SUB DUP2 AND PUSH2 0x11C2 JUMPI PUSH1 0x40 DUP1 MLOAD PUSH3 0x461BCD PUSH1 0xE5 SHL DUP2 MSTORE PUSH1 0x20 PUSH1 0x4 DUP3 ADD MSTORE PUSH1 0x12 PUSH1 0x24 DUP3 ADD MSTORE PUSH18 0x64656C656761746542795369673A20736967 PUSH1 0x70 SHL PUSH1 0x44 DUP3 ADD MSTORE SWAP1 MLOAD SWAP1 DUP2 SWAP1 SUB PUSH1 0x64 ADD SWAP1 REVERT JUMPDEST PUSH1 0x1 PUSH1 0x1 PUSH1 0xA0 SHL SUB DUP2 AND PUSH1 0x0 SWAP1 DUP2 MSTORE PUSH1 0x7 PUSH1 0x20 MSTORE PUSH1 0x40 SWAP1 KECCAK256 DUP1 SLOAD PUSH1 0x1 DUP2 ADD SWAP1 SWAP2 SSTORE DUP9 EQ PUSH2 0x122D JUMPI PUSH1 0x40 DUP1 MLOAD PUSH3 0x461BCD PUSH1 0xE5 SHL DUP2 MSTORE PUSH1 0x20 PUSH1 0x4 DUP3 ADD MSTORE PUSH1 0x14 PUSH1 0x24 DUP3 ADD MSTORE PUSH20 0x64656C656761746542795369673A206E6F6E6365 PUSH1 0x60 SHL PUSH1 0x44 DUP3 ADD MSTORE SWAP1 MLOAD SWAP1 DUP2 SWAP1 SUB PUSH1 0x64 ADD SWAP1 REVERT JUMPDEST DUP7 TIMESTAMP GT ISZERO PUSH2 0x127B JUMPI PUSH1 0x40 DUP1 MLOAD PUSH3 0x461BCD PUSH1 0xE5 SHL DUP2 MSTORE PUSH1 0x20 PUSH1 0x4 DUP3 ADD MSTORE PUSH1 0x16 PUSH1 0x24 DUP3 ADD MSTORE PUSH22 0x19195B1959D85D19509E54DA59CE88195E1C1A5C9959 PUSH1 0x52 SHL PUSH1 0x44 DUP3 ADD MSTORE SWAP1 MLOAD SWAP1 DUP2 SWAP1 SUB PUSH1 0x64 ADD SWAP1 REVERT JUMPDEST PUSH2 0x1285 DUP2 DUP11 PUSH2 0x1C06 JUMP JUMPDEST POP POP POP POP POP POP POP POP POP JUMP JUMPDEST PUSH1 0x0 PUSH1 0x40 MLOAD DUP1 DUP1 PUSH2 0x22E2 PUSH1 0x49 SWAP2 CODECOPY PUSH1 0x40 DUP1 MLOAD SWAP2 DUP3 SWAP1 SUB PUSH1 0x49 ADD DUP3 KECCAK256 PUSH1 0x1 PUSH1 0x1 PUSH1 0xA0 SHL SUB DUP1 DUP14 AND PUSH1 0x0 DUP2 DUP2 MSTORE PUSH1 0x7 PUSH1 0x20 SWAP1 DUP2 MSTORE DUP6 DUP3 KECCAK256 DUP1 SLOAD PUSH1 0x1 DUP1 DUP3 ADD SWAP1 SWAP3 SSTORE DUP3 DUP10 ADD SWAP7 SWAP1 SWAP7 MSTORE DUP8 DUP8 ADD SWAP4 SWAP1 SWAP4 MSTORE SWAP3 DUP15 AND PUSH1 0x60 DUP8 ADD MSTORE PUSH1 0x80 DUP7 ADD DUP14 SWAP1 MSTORE PUSH1 0xA0 DUP7 ADD SWAP4 SWAP1 SWAP4 MSTORE PUSH1 0xC0 DUP1 DUP7 ADD DUP13 SWAP1 MSTORE DUP5 MLOAD DUP1 DUP8 SUB SWAP1 SWAP2 ADD DUP2 MSTORE PUSH1 0xE0 DUP7 ADD DUP6 MSTORE DUP1 MLOAD SWAP1 DUP4 ADD KECCAK256 PUSH1 0x6 SLOAD PUSH2 0x1901 PUSH1 0xF0 SHL PUSH2 0x100 DUP9 ADD MSTORE PUSH2 0x102 DUP8 ADD MSTORE PUSH2 0x122 DUP1 DUP8 ADD DUP3 SWAP1 MSTORE DUP6 MLOAD DUP1 DUP9 SUB SWAP1 SWAP2 ADD DUP2 MSTORE PUSH2 0x142 DUP8 ADD DUP1 DUP8 MSTORE DUP2 MLOAD SWAP2 DUP6 ADD SWAP2 SWAP1 SWAP2 KECCAK256 SWAP1 DUP6 SWAP1 MSTORE PUSH2 0x162 DUP8 ADD DUP1 DUP8 MSTORE DUP2 SWAP1 MSTORE PUSH1 0xFF DUP13 AND PUSH2 0x182 DUP9 ADD MSTORE PUSH2 0x1A2 DUP8 ADD DUP12 SWAP1 MSTORE PUSH2 0x1C2 DUP8 ADD DUP11 SWAP1 MSTORE SWAP5 MLOAD SWAP1 SWAP8 POP SWAP4 SWAP6 POP SWAP2 SWAP4 SWAP2 SWAP3 PUSH2 0x1E2 DUP1 DUP5 ADD SWAP4 PUSH1 0x1F NOT DUP4 ADD SWAP3 SWAP1 DUP2 SWAP1 SUB SWAP1 SWAP2 ADD SWAP1 DUP6 GAS STATICCALL ISZERO DUP1 ISZERO PUSH2 0x13A9 JUMPI RETURNDATASIZE PUSH1 0x0 DUP1 RETURNDATACOPY RETURNDATASIZE PUSH1 0x0 REVERT JUMPDEST POP POP PUSH1 0x40 MLOAD PUSH1 0x1F NOT ADD MLOAD SWAP2 POP POP PUSH1 0x1 PUSH1 0x1 PUSH1 0xA0 SHL SUB DUP2 AND PUSH2 0x1405 JUMPI PUSH1 0x40 DUP1 MLOAD PUSH3 0x461BCD PUSH1 0xE5 SHL DUP2 MSTORE PUSH1 0x20 PUSH1 0x4 DUP3 ADD MSTORE PUSH1 0x11 PUSH1 0x24 DUP3 ADD MSTORE PUSH17 0x7065726D69743A207369676E6174757265 PUSH1 0x78 SHL PUSH1 0x44 DUP3 ADD MSTORE SWAP1 MLOAD SWAP1 DUP2 SWAP1 SUB PUSH1 0x64 ADD SWAP1 REVERT JUMPDEST DUP10 PUSH1 0x1 PUSH1 0x1 PUSH1 0xA0 SHL SUB AND DUP2 PUSH1 0x1 PUSH1 0x1 PUSH1 0xA0 SHL SUB AND EQ PUSH2 0x1462 JUMPI PUSH1 0x40 DUP1 MLOAD PUSH3 0x461BCD PUSH1 0xE5 SHL DUP2 MSTORE PUSH1 0x20 PUSH1 0x4 DUP3 ADD MSTORE PUSH1 0x14 PUSH1 0x24 DUP3 ADD MSTORE PUSH20 0x1C195C9B5A5D0E881D5B985D5D1A1BDC9A5E9959 PUSH1 0x62 SHL PUSH1 0x44 DUP3 ADD MSTORE SWAP1 MLOAD SWAP1 DUP2 SWAP1 SUB PUSH1 0x64 ADD SWAP1 REVERT JUMPDEST DUP7 TIMESTAMP GT ISZERO PUSH2 0x14A9 JUMPI PUSH1 0x40 DUP1 MLOAD PUSH3 0x461BCD PUSH1 0xE5 SHL DUP2 MSTORE PUSH1 0x20 PUSH1 0x4 DUP3 ADD MSTORE PUSH1 0xF PUSH1 0x24 DUP3 ADD MSTORE PUSH15 0x1C195C9B5A5D0E88195E1C1A5C9959 PUSH1 0x8A SHL PUSH1 0x44 DUP3 ADD MSTORE SWAP1 MLOAD SWAP1 DUP2 SWAP1 SUB PUSH1 0x64 ADD SWAP1 REVERT JUMPDEST PUSH1 0x1 PUSH1 0x1 PUSH1 0xA0 SHL SUB DUP1 DUP12 AND PUSH1 0x0 DUP2 DUP2 MSTORE PUSH1 0x4 PUSH1 0x20 SWAP1 DUP2 MSTORE PUSH1 0x40 DUP1 DUP4 KECCAK256 SWAP5 DUP15 AND DUP1 DUP5 MSTORE SWAP5 DUP3 MSTORE SWAP2 DUP3 SWAP1 KECCAK256 DUP13 SWAP1 SSTORE DUP2 MLOAD DUP13 DUP2 MSTORE SWAP2 MLOAD PUSH32 0x8C5BE1E5EBEC7D5BD14F71427D1E84F3DD0314C0F7B2291E5B200AC8C7C3B925 SWAP3 DUP2 SWAP1 SUB SWAP1 SWAP2 ADD SWAP1 LOG3 POP POP POP POP POP POP POP POP POP POP JUMP JUMPDEST PUSH1 0x1 PUSH1 0x1 PUSH1 0xA0 SHL SUB SWAP2 DUP3 AND PUSH1 0x0 SWAP1 DUP2 MSTORE PUSH1 0x4 PUSH1 0x20 SWAP1 DUP2 MSTORE PUSH1 0x40 DUP1 DUP4 KECCAK256 SWAP4 SWAP1 SWAP5 AND DUP3 MSTORE SWAP2 SWAP1 SWAP2 MSTORE KECCAK256 SLOAD SWAP1 JUMP JUMPDEST PUSH2 0xC38 DUP2 PUSH2 0x1AC4 JUMP JUMPDEST PUSH1 0x40 DUP1 MLOAD PUSH4 0x70A08231 PUSH1 0xE0 SHL DUP2 MSTORE CALLER PUSH1 0x4 DUP3 ADD MSTORE SWAP1 MLOAD PUSH2 0xC02 SWAP2 PUSH20 0xD533A949740BB3306D119CC777FA900BA034CD52 SWAP2 PUSH4 0x70A08231 SWAP2 PUSH1 0x24 DUP1 DUP3 ADD SWAP3 PUSH1 0x20 SWAP3 SWAP1 SWAP2 SWAP1 DUP3 SWAP1 SUB ADD DUP2 DUP7 DUP1 EXTCODESIZE ISZERO DUP1 ISZERO PUSH2 0x159C JUMPI PUSH1 0x0 DUP1 REVERT JUMPDEST POP GAS STATICCALL ISZERO DUP1 ISZERO PUSH2 0x15B0 JUMPI RETURNDATASIZE PUSH1 0x0 DUP1 RETURNDATACOPY RETURNDATASIZE PUSH1 0x0 REVERT JUMPDEST POP POP POP POP PUSH1 0x40 MLOAD RETURNDATASIZE PUSH1 0x20 DUP2 LT ISZERO PUSH2 0x15C6 JUMPI PUSH1 0x0 DUP1 REVERT JUMPDEST POP MLOAD PUSH2 0x1C86 JUMP JUMPDEST PUSH1 0xE PUSH1 0x20 MSTORE PUSH1 0x0 SWAP1 DUP2 MSTORE PUSH1 0x40 SWAP1 KECCAK256 SLOAD DUP2 JUMP JUMPDEST PUSH1 0x40 MLOAD DUP1 PUSH1 0x34 PUSH2 0x22AE DUP3 CODECOPY PUSH1 0x34 ADD SWAP1 POP PUSH1 0x40 MLOAD DUP1 SWAP2 SUB SWAP1 KECCAK256 DUP2 JUMP JUMPDEST PUSH1 0xA SLOAD PUSH1 0x1 PUSH1 0x1 PUSH1 0xA0 SHL SUB AND DUP2 JUMP JUMPDEST PUSH1 0x2 PUSH1 0x20 SWAP1 DUP2 MSTORE PUSH1 0x0 SWAP3 DUP4 MSTORE PUSH1 0x40 DUP1 DUP5 KECCAK256 SWAP1 SWAP2 MSTORE SWAP1 DUP3 MSTORE SWAP1 KECCAK256 DUP1 SLOAD PUSH1 0x1 SWAP1 SWAP2 ADD SLOAD PUSH4 0xFFFFFFFF SWAP1 SWAP2 AND SWAP1 DUP3 JUMP JUMPDEST PUSH1 0x9 SLOAD PUSH1 0x1 PUSH1 0x1 PUSH1 0xA0 SHL SUB AND DUP2 JUMP JUMPDEST PUSH1 0x0 SLOAD ISZERO PUSH2 0xC02 JUMPI PUSH2 0x1655 PUSH2 0x1D9C JUMP JUMPDEST PUSH1 0x40 DUP1 MLOAD PUSH4 0x70A08231 PUSH1 0xE0 SHL DUP2 MSTORE ADDRESS PUSH1 0x4 DUP3 ADD MSTORE SWAP1 MLOAD PUSH1 0x0 SWAP2 PUSH20 0x6C3F90F043A72FA612CBAC8115EE7E52BDE6E490 SWAP2 PUSH4 0x70A08231 SWAP2 PUSH1 0x24 DUP1 DUP3 ADD SWAP3 PUSH1 0x20 SWAP3 SWAP1 SWAP2 SWAP1 DUP3 SWAP1 SUB ADD DUP2 DUP7 DUP1 EXTCODESIZE ISZERO DUP1 ISZERO PUSH2 0x16AA JUMPI PUSH1 0x0 DUP1 REVERT JUMPDEST POP GAS STATICCALL ISZERO DUP1 ISZERO PUSH2 0x16BE JUMPI RETURNDATASIZE PUSH1 0x0 DUP1 RETURNDATACOPY RETURNDATASIZE PUSH1 0x0 REVERT JUMPDEST POP POP POP POP PUSH1 0x40 MLOAD RETURNDATASIZE PUSH1 0x20 DUP2 LT ISZERO PUSH2 0x16D4 JUMPI PUSH1 0x0 DUP1 REVERT JUMPDEST POP MLOAD PUSH1 0xD SLOAD SWAP1 SWAP2 POP DUP2 GT ISZERO PUSH2 0xC38 JUMPI PUSH1 0x0 PUSH2 0x1731 PUSH1 0xD SLOAD PUSH1 0x40 MLOAD DUP1 PUSH1 0x40 ADD PUSH1 0x40 MSTORE DUP1 PUSH1 0x19 DUP2 MSTORE PUSH1 0x20 ADD PUSH32 0x76654352563A3A5F7570646174653A2062616C205F6469666600000000000000 DUP2 MSTORE POP DUP5 PUSH2 0x1782 SWAP1 SWAP3 SWAP2 SWAP1 PUSH4 0xFFFFFFFF AND JUMP JUMPDEST SWAP1 POP DUP1 ISZERO PUSH2 0x99E JUMPI PUSH1 0x0 DUP1 SLOAD PUSH2 0x1759 SWAP1 PUSH2 0x927 DUP5 PUSH8 0xDE0B6B3A7640000 PUSH4 0xFFFFFFFF PUSH2 0x1819 AND JUMP JUMPDEST SWAP1 POP DUP1 ISZERO PUSH2 0x177D JUMPI PUSH1 0xC SLOAD PUSH2 0x1774 SWAP1 DUP3 PUSH4 0xFFFFFFFF PUSH2 0x18B4 AND JUMP JUMPDEST PUSH1 0xC SSTORE PUSH1 0xD DUP4 SWAP1 SSTORE JUMPDEST POP POP POP JUMP JUMPDEST PUSH1 0x0 DUP2 DUP5 DUP5 GT ISZERO PUSH2 0x1811 JUMPI PUSH1 0x40 MLOAD PUSH3 0x461BCD PUSH1 0xE5 SHL DUP2 MSTORE PUSH1 0x4 ADD DUP1 DUP1 PUSH1 0x20 ADD DUP3 DUP2 SUB DUP3 MSTORE DUP4 DUP2 DUP2 MLOAD DUP2 MSTORE PUSH1 0x20 ADD SWAP2 POP DUP1 MLOAD SWAP1 PUSH1 0x20 ADD SWAP1 DUP1 DUP4 DUP4 PUSH1 0x0 JUMPDEST DUP4 DUP2 LT ISZERO PUSH2 0x17D6 JUMPI DUP2 DUP2 ADD MLOAD DUP4 DUP3 ADD MSTORE PUSH1 0x20 ADD PUSH2 0x17BE JUMP JUMPDEST POP POP POP POP SWAP1 POP SWAP1 DUP2 ADD SWAP1 PUSH1 0x1F AND DUP1 ISZERO PUSH2 0x1803 JUMPI DUP1 DUP3 SUB DUP1 MLOAD PUSH1 0x1 DUP4 PUSH1 0x20 SUB PUSH2 0x100 EXP SUB NOT AND DUP2 MSTORE PUSH1 0x20 ADD SWAP2 POP JUMPDEST POP SWAP3 POP POP POP PUSH1 0x40 MLOAD DUP1 SWAP2 SUB SWAP1 REVERT JUMPDEST POP POP POP SWAP1 SUB SWAP1 JUMP JUMPDEST PUSH1 0x0 DUP3 PUSH2 0x1828 JUMPI POP PUSH1 0x0 PUSH2 0x868 JUMP JUMPDEST DUP3 DUP3 MUL DUP3 DUP5 DUP3 DUP2 PUSH2 0x1835 JUMPI INVALID JUMPDEST DIV EQ PUSH2 0x1066 JUMPI PUSH1 0x40 MLOAD PUSH3 0x461BCD PUSH1 0xE5 SHL DUP2 MSTORE PUSH1 0x4 ADD DUP1 DUP1 PUSH1 0x20 ADD DUP3 DUP2 SUB DUP3 MSTORE PUSH1 0x21 DUP2 MSTORE PUSH1 0x20 ADD DUP1 PUSH2 0x236B PUSH1 0x21 SWAP2 CODECOPY PUSH1 0x40 ADD SWAP2 POP POP PUSH1 0x40 MLOAD DUP1 SWAP2 SUB SWAP1 REVERT JUMPDEST PUSH1 0x0 PUSH2 0x1066 DUP4 DUP4 PUSH1 0x40 MLOAD DUP1 PUSH1 0x40 ADD PUSH1 0x40 MSTORE DUP1 PUSH1 0x1A DUP2 MSTORE PUSH1 0x20 ADD PUSH32 0x536166654D6174683A206469766973696F6E206279207A65726F000000000000 DUP2 MSTORE POP PUSH2 0x1E0D JUMP JUMPDEST PUSH1 0x0 DUP3 DUP3 ADD DUP4 DUP2 LT ISZERO PUSH2 0x1066 JUMPI PUSH1 0x40 DUP1 MLOAD PUSH3 0x461BCD PUSH1 0xE5 SHL DUP2 MSTORE PUSH1 0x20 PUSH1 0x4 DUP3 ADD MSTORE PUSH1 0x1B PUSH1 0x24 DUP3 ADD MSTORE PUSH32 0x536166654D6174683A206164646974696F6E206F766572666C6F770000000000 PUSH1 0x44 DUP3 ADD MSTORE SWAP1 MLOAD SWAP1 DUP2 SWAP1 SUB PUSH1 0x64 ADD SWAP1 REVERT JUMPDEST PUSH1 0x1 PUSH1 0x1 PUSH1 0xA0 SHL SUB DUP4 AND PUSH2 0x1969 JUMPI PUSH1 0x40 DUP1 MLOAD PUSH3 0x461BCD PUSH1 0xE5 SHL DUP2 MSTORE PUSH1 0x20 PUSH1 0x4 DUP3 ADD MSTORE PUSH1 0x1D PUSH1 0x24 DUP3 ADD MSTORE PUSH32 0x5F7472616E73666572546F6B656E733A207A65726F2061646472657373000000 PUSH1 0x44 DUP3 ADD MSTORE SWAP1 MLOAD SWAP1 DUP2 SWAP1 SUB PUSH1 0x64 ADD SWAP1 REVERT JUMPDEST PUSH1 0x1 PUSH1 0x1 PUSH1 0xA0 SHL SUB DUP3 AND PUSH2 0x19C4 JUMPI PUSH1 0x40 DUP1 MLOAD PUSH3 0x461BCD PUSH1 0xE5 SHL DUP2 MSTORE PUSH1 0x20 PUSH1 0x4 DUP3 ADD MSTORE PUSH1 0x1D PUSH1 0x24 DUP3 ADD MSTORE PUSH32 0x5F7472616E73666572546F6B656E733A207A65726F2061646472657373000000 PUSH1 0x44 DUP3 ADD MSTORE SWAP1 MLOAD SWAP1 DUP2 SWAP1 SUB PUSH1 0x64 ADD SWAP1 REVERT JUMPDEST PUSH2 0x19CD DUP4 PUSH2 0x86E JUMP JUMPDEST PUSH2 0x19D6 DUP3 PUSH2 0x86E JUMP JUMPDEST PUSH1 0x40 DUP1 MLOAD DUP1 DUP3 ADD DUP3 MSTORE PUSH1 0x20 DUP1 DUP3 MSTORE PUSH32 0x5F7472616E73666572546F6B656E733A20657863656564732062616C616E6365 DUP2 DUP4 ADD MSTORE PUSH1 0x1 PUSH1 0x1 PUSH1 0xA0 SHL SUB DUP7 AND PUSH1 0x0 SWAP1 DUP2 MSTORE PUSH1 0x5 SWAP1 SWAP2 MSTORE SWAP2 SWAP1 SWAP2 KECCAK256 SLOAD PUSH2 0x1A33 SWAP2 DUP4 SWAP1 PUSH4 0xFFFFFFFF PUSH2 0x1782 AND JUMP JUMPDEST PUSH1 0x1 PUSH1 0x1 PUSH1 0xA0 SHL SUB DUP1 DUP6 AND PUSH1 0x0 SWAP1 DUP2 MSTORE PUSH1 0x5 PUSH1 0x20 MSTORE PUSH1 0x40 DUP1 DUP3 KECCAK256 SWAP4 SWAP1 SWAP4 SSTORE SWAP1 DUP5 AND DUP2 MSTORE KECCAK256 SLOAD PUSH2 0x1A68 SWAP1 DUP3 PUSH4 0xFFFFFFFF PUSH2 0x18B4 AND JUMP JUMPDEST PUSH1 0x1 PUSH1 0x1 PUSH1 0xA0 SHL SUB DUP1 DUP5 AND PUSH1 0x0 DUP2 DUP2 MSTORE PUSH1 0x5 PUSH1 0x20 SWAP1 DUP2 MSTORE PUSH1 0x40 SWAP2 DUP3 SWAP1 KECCAK256 SWAP5 SWAP1 SWAP5 SSTORE DUP1 MLOAD DUP6 DUP2 MSTORE SWAP1 MLOAD SWAP2 SWAP4 SWAP3 DUP8 AND SWAP3 PUSH32 0xDDF252AD1BE2C89B69C2B068FC378DAA952BA7F163C4A11628F55A4DF523B3EF SWAP3 SWAP2 DUP3 SWAP1 SUB ADD SWAP1 LOG3 POP POP POP JUMP JUMPDEST PUSH2 0x1ACD DUP2 PUSH2 0x86E JUMP JUMPDEST PUSH1 0x1 PUSH1 0x1 PUSH1 0xA0 SHL SUB DUP2 AND PUSH1 0x0 DUP2 DUP2 MSTORE PUSH1 0xF PUSH1 0x20 SWAP1 DUP2 MSTORE PUSH1 0x40 DUP1 DUP4 KECCAK256 SLOAD DUP2 MLOAD PUSH4 0xA9059CBB PUSH1 0xE0 SHL DUP2 MSTORE PUSH1 0x4 DUP2 ADD SWAP6 SWAP1 SWAP6 MSTORE PUSH1 0x24 DUP6 ADD MSTORE MLOAD PUSH20 0x6C3F90F043A72FA612CBAC8115EE7E52BDE6E490 SWAP4 PUSH4 0xA9059CBB SWAP4 PUSH1 0x44 DUP1 DUP4 ADD SWAP5 SWAP4 SWAP3 DUP4 SWAP1 SUB ADD SWAP1 DUP3 SWAP1 DUP8 DUP1 EXTCODESIZE ISZERO DUP1 ISZERO PUSH2 0x1B3D JUMPI PUSH1 0x0 DUP1 REVERT JUMPDEST POP GAS CALL ISZERO DUP1 ISZERO PUSH2 0x1B51 JUMPI RETURNDATASIZE PUSH1 0x0 DUP1 RETURNDATACOPY RETURNDATASIZE PUSH1 0x0 REVERT JUMPDEST POP POP POP POP PUSH1 0x40 MLOAD RETURNDATASIZE PUSH1 0x20 DUP2 LT ISZERO PUSH2 0x1B67 JUMPI PUSH1 0x0 DUP1 REVERT JUMPDEST POP POP PUSH1 0x1 PUSH1 0x1 PUSH1 0xA0 SHL SUB DUP2 AND PUSH1 0x0 SWAP1 DUP2 MSTORE PUSH1 0xF PUSH1 0x20 SWAP1 DUP2 MSTORE PUSH1 0x40 DUP1 DUP4 KECCAK256 SWAP3 SWAP1 SWAP3 SSTORE DUP2 MLOAD PUSH4 0x70A08231 PUSH1 0xE0 SHL DUP2 MSTORE ADDRESS PUSH1 0x4 DUP3 ADD MSTORE SWAP2 MLOAD PUSH20 0x6C3F90F043A72FA612CBAC8115EE7E52BDE6E490 SWAP3 PUSH4 0x70A08231 SWAP3 PUSH1 0x24 DUP1 DUP4 ADD SWAP4 SWAP2 SWAP3 DUP3 SWAP1 SUB ADD DUP2 DUP7 DUP1 EXTCODESIZE ISZERO DUP1 ISZERO PUSH2 0x1BD4 JUMPI PUSH1 0x0 DUP1 REVERT JUMPDEST POP GAS STATICCALL ISZERO DUP1 ISZERO PUSH2 0x1BE8 JUMPI RETURNDATASIZE PUSH1 0x0 DUP1 RETURNDATACOPY RETURNDATASIZE PUSH1 0x0 REVERT JUMPDEST POP POP POP POP PUSH1 0x40 MLOAD RETURNDATASIZE PUSH1 0x20 DUP2 LT ISZERO PUSH2 0x1BFE JUMPI PUSH1 0x0 DUP1 REVERT JUMPDEST POP MLOAD PUSH1 0xD SSTORE POP JUMP JUMPDEST PUSH1 0x1 PUSH1 0x1 PUSH1 0xA0 SHL SUB DUP1 DUP4 AND PUSH1 0x0 DUP2 DUP2 MSTORE PUSH1 0x1 PUSH1 0x20 DUP2 DUP2 MSTORE PUSH1 0x40 DUP1 DUP5 KECCAK256 DUP1 SLOAD PUSH1 0x5 DUP5 MSTORE DUP3 DUP7 KECCAK256 SLOAD SWAP5 SWAP1 SWAP4 MSTORE DUP8 DUP8 AND PUSH1 0x1 PUSH1 0x1 PUSH1 0xA0 SHL SUB NOT DUP5 AND DUP2 OR SWAP1 SWAP2 SSTORE SWAP1 MLOAD SWAP2 SWAP1 SWAP6 AND SWAP5 SWAP2 SWAP4 SWAP2 SWAP3 DUP6 SWAP3 SWAP2 PUSH32 0x3134E8A2E6D97E929A7E54011EA5485D7D196DD5F0BA4D4EF95803E8E3FC257F SWAP2 SWAP1 LOG4 PUSH2 0x1C80 DUP3 DUP5 DUP4 PUSH2 0x1E72 JUMP JUMPDEST POP POP POP POP JUMP JUMPDEST PUSH1 0x40 DUP1 MLOAD PUSH4 0x23B872DD PUSH1 0xE0 SHL DUP2 MSTORE CALLER PUSH1 0x4 DUP3 ADD MSTORE PUSH20 0xF147B8125D2EF93FB6965DB97D6746952A133934 PUSH1 0x24 DUP3 ADD MSTORE PUSH1 0x44 DUP2 ADD DUP4 SWAP1 MSTORE SWAP1 MLOAD PUSH20 0xD533A949740BB3306D119CC777FA900BA034CD52 SWAP2 PUSH4 0x23B872DD SWAP2 PUSH1 0x64 DUP1 DUP4 ADD SWAP3 PUSH1 0x20 SWAP3 SWAP2 SWAP1 DUP3 SWAP1 SUB ADD DUP2 PUSH1 0x0 DUP8 DUP1 EXTCODESIZE ISZERO DUP1 ISZERO PUSH2 0x1CFA JUMPI PUSH1 0x0 DUP1 REVERT JUMPDEST POP GAS CALL ISZERO DUP1 ISZERO PUSH2 0x1D0E JUMPI RETURNDATASIZE PUSH1 0x0 DUP1 RETURNDATACOPY RETURNDATASIZE PUSH1 0x0 REVERT JUMPDEST POP POP POP POP PUSH1 0x40 MLOAD RETURNDATASIZE PUSH1 0x20 DUP2 LT ISZERO PUSH2 0x1D24 JUMPI PUSH1 0x0 DUP1 REVERT JUMPDEST POP PUSH2 0x1D31 SWAP1 POP CALLER DUP3 PUSH2 0x1FF6 JUMP JUMPDEST PUSH1 0xA PUSH1 0x0 SWAP1 SLOAD SWAP1 PUSH2 0x100 EXP SWAP1 DIV PUSH1 0x1 PUSH1 0x1 PUSH1 0xA0 SHL SUB AND PUSH1 0x1 PUSH1 0x1 PUSH1 0xA0 SHL SUB AND PUSH4 0xF83D08BA PUSH1 0x40 MLOAD DUP2 PUSH4 0xFFFFFFFF AND PUSH1 0xE0 SHL DUP2 MSTORE PUSH1 0x4 ADD PUSH1 0x0 PUSH1 0x40 MLOAD DUP1 DUP4 SUB DUP2 PUSH1 0x0 DUP8 DUP1 EXTCODESIZE ISZERO DUP1 ISZERO PUSH2 0x1D81 JUMPI PUSH1 0x0 DUP1 REVERT JUMPDEST POP GAS CALL ISZERO DUP1 ISZERO PUSH2 0x1D95 JUMPI RETURNDATASIZE PUSH1 0x0 DUP1 RETURNDATACOPY RETURNDATASIZE PUSH1 0x0 REVERT JUMPDEST POP POP POP POP POP JUMP JUMPDEST PUSH1 0xB SLOAD PUSH1 0x1 PUSH1 0x1 PUSH1 0xA0 SHL SUB AND ISZERO PUSH2 0xC02 JUMPI PUSH1 0xB SLOAD PUSH1 0x40 DUP1 MLOAD PUSH4 0xF41A04D PUSH1 0xE1 SHL DUP2 MSTORE ADDRESS PUSH1 0x4 DUP3 ADD MSTORE SWAP1 MLOAD PUSH1 0x1 PUSH1 0x1 PUSH1 0xA0 SHL SUB SWAP1 SWAP3 AND SWAP2 PUSH4 0x1E83409A SWAP2 PUSH1 0x24 DUP1 DUP3 ADD SWAP3 PUSH1 0x0 SWAP3 SWAP1 SWAP2 SWAP1 DUP3 SWAP1 SUB ADD DUP2 DUP4 DUP8 DUP1 EXTCODESIZE ISZERO DUP1 ISZERO PUSH2 0x1DF9 JUMPI PUSH1 0x0 DUP1 REVERT JUMPDEST POP GAS CALL ISZERO DUP1 ISZERO PUSH2 0x1C80 JUMPI RETURNDATASIZE PUSH1 0x0 DUP1 RETURNDATACOPY RETURNDATASIZE PUSH1 0x0 REVERT JUMPDEST PUSH1 0x0 DUP2 DUP4 PUSH2 0x1E5C JUMPI PUSH1 0x40 MLOAD PUSH3 0x461BCD PUSH1 0xE5 SHL DUP2 MSTORE PUSH1 0x20 PUSH1 0x4 DUP3 ADD DUP2 DUP2 MSTORE DUP4 MLOAD PUSH1 0x24 DUP5 ADD MSTORE DUP4 MLOAD SWAP1 SWAP3 DUP4 SWAP3 PUSH1 0x44 SWAP1 SWAP2 ADD SWAP2 SWAP1 DUP6 ADD SWAP1 DUP1 DUP4 DUP4 PUSH1 0x0 DUP4 ISZERO PUSH2 0x17D6 JUMPI DUP2 DUP2 ADD MLOAD DUP4 DUP3 ADD MSTORE PUSH1 0x20 ADD PUSH2 0x17BE JUMP JUMPDEST POP PUSH1 0x0 DUP4 DUP6 DUP2 PUSH2 0x1E68 JUMPI INVALID JUMPDEST DIV SWAP6 SWAP5 POP POP POP POP POP JUMP JUMPDEST DUP2 PUSH1 0x1 PUSH1 0x1 PUSH1 0xA0 SHL SUB AND DUP4 PUSH1 0x1 PUSH1 0x1 PUSH1 0xA0 SHL SUB AND EQ ISZERO DUP1 ISZERO PUSH2 0x1E94 JUMPI POP PUSH1 0x0 DUP2 GT JUMPDEST ISZERO PUSH2 0x177D JUMPI PUSH1 0x1 PUSH1 0x1 PUSH1 0xA0 SHL SUB DUP4 AND ISZERO PUSH2 0x1F5F JUMPI PUSH1 0x1 PUSH1 0x1 PUSH1 0xA0 SHL SUB DUP4 AND PUSH1 0x0 SWAP1 DUP2 MSTORE PUSH1 0x3 PUSH1 0x20 MSTORE PUSH1 0x40 DUP2 KECCAK256 SLOAD PUSH4 0xFFFFFFFF AND SWAP1 DUP2 PUSH2 0x1ED4 JUMPI PUSH1 0x0 PUSH2 0x1F06 JUMP JUMPDEST PUSH1 0x1 PUSH1 0x1 PUSH1 0xA0 SHL SUB DUP6 AND PUSH1 0x0 SWAP1 DUP2 MSTORE PUSH1 0x2 PUSH1 0x20 SWAP1 DUP2 MSTORE PUSH1 0x40 DUP1 DUP4 KECCAK256 PUSH4 0xFFFFFFFF PUSH1 0x0 NOT DUP8 ADD AND DUP5 MSTORE SWAP1 SWAP2 MSTORE SWAP1 KECCAK256 PUSH1 0x1 ADD SLOAD JUMPDEST SWAP1 POP PUSH1 0x0 PUSH2 0x1F4D DUP5 PUSH1 0x40 MLOAD DUP1 PUSH1 0x40 ADD PUSH1 0x40 MSTORE DUP1 PUSH1 0x16 DUP2 MSTORE PUSH1 0x20 ADD PUSH22 0x5F6D6F7665566F7465733A20756E646572666C6F7773 PUSH1 0x50 SHL DUP2 MSTORE POP DUP5 PUSH2 0x1782 SWAP1 SWAP3 SWAP2 SWAP1 PUSH4 0xFFFFFFFF AND JUMP JUMPDEST SWAP1 POP PUSH2 0x1F5B DUP7 DUP5 DUP5 DUP5 PUSH2 0x20B6 JUMP JUMPDEST POP POP POP JUMPDEST PUSH1 0x1 PUSH1 0x1 PUSH1 0xA0 SHL SUB DUP3 AND ISZERO PUSH2 0x177D JUMPI PUSH1 0x1 PUSH1 0x1 PUSH1 0xA0 SHL SUB DUP3 AND PUSH1 0x0 SWAP1 DUP2 MSTORE PUSH1 0x3 PUSH1 0x20 MSTORE PUSH1 0x40 DUP2 KECCAK256 SLOAD PUSH4 0xFFFFFFFF AND SWAP1 DUP2 PUSH2 0x1F9A JUMPI PUSH1 0x0 PUSH2 0x1FCC JUMP JUMPDEST PUSH1 0x1 PUSH1 0x1 PUSH1 0xA0 SHL SUB DUP5 AND PUSH1 0x0 SWAP1 DUP2 MSTORE PUSH1 0x2 PUSH1 0x20 SWAP1 DUP2 MSTORE PUSH1 0x40 DUP1 DUP4 KECCAK256 PUSH4 0xFFFFFFFF PUSH1 0x0 NOT DUP8 ADD AND DUP5 MSTORE SWAP1 SWAP2 MSTORE SWAP1 KECCAK256 PUSH1 0x1 ADD SLOAD JUMPDEST SWAP1 POP PUSH1 0x0 PUSH2 0x1FE0 DUP3 DUP6 PUSH4 0xFFFFFFFF PUSH2 0x18B4 AND JUMP JUMPDEST SWAP1 POP PUSH2 0x1FEE DUP6 DUP5 DUP5 DUP5 PUSH2 0x20B6 JUMP JUMPDEST POP POP POP POP POP POP JUMP JUMPDEST PUSH2 0x1FFF DUP3 PUSH2 0x86E JUMP JUMPDEST PUSH1 0x0 SLOAD PUSH2 0x2012 SWAP1 DUP3 PUSH4 0xFFFFFFFF PUSH2 0x18B4 AND JUMP JUMPDEST PUSH1 0x0 SWAP1 DUP2 SSTORE PUSH1 0x1 PUSH1 0x1 PUSH1 0xA0 SHL SUB DUP4 AND DUP2 MSTORE PUSH1 0x5 PUSH1 0x20 MSTORE PUSH1 0x40 SWAP1 KECCAK256 SLOAD PUSH2 0x203D SWAP1 DUP3 PUSH4 0xFFFFFFFF PUSH2 0x18B4 AND JUMP JUMPDEST PUSH1 0x1 PUSH1 0x1 PUSH1 0xA0 SHL SUB DUP4 AND PUSH1 0x0 DUP2 DUP2 MSTORE PUSH1 0x5 PUSH1 0x20 SWAP1 DUP2 MSTORE PUSH1 0x40 DUP1 DUP4 KECCAK256 SWAP5 SWAP1 SWAP5 SSTORE DUP4 MLOAD DUP6 DUP2 MSTORE SWAP4 MLOAD SWAP3 SWAP4 SWAP2 SWAP3 PUSH32 0xDDF252AD1BE2C89B69C2B068FC378DAA952BA7F163C4A11628F55A4DF523B3EF SWAP3 DUP2 SWAP1 SUB SWAP1 SWAP2 ADD SWAP1 LOG3 PUSH1 0x1 PUSH1 0x1 PUSH1 0xA0 SHL SUB DUP1 DUP4 AND PUSH1 0x0 SWAP1 DUP2 MSTORE PUSH1 0x1 PUSH1 0x20 MSTORE PUSH1 0x40 DUP2 KECCAK256 SLOAD PUSH2 0x99E SWAP3 AND DUP4 PUSH2 0x1E72 JUMP JUMPDEST PUSH1 0x0 PUSH2 0x20F7 NUMBER PUSH1 0x40 MLOAD DUP1 PUSH1 0x40 ADD PUSH1 0x40 MSTORE DUP1 PUSH1 0x19 DUP2 MSTORE PUSH1 0x20 ADD PUSH32 0x5F7772697465436865636B706F696E743A203332206269747300000000000000 DUP2 MSTORE POP PUSH2 0x2238 JUMP JUMPDEST SWAP1 POP PUSH1 0x0 DUP5 PUSH4 0xFFFFFFFF AND GT DUP1 ISZERO PUSH2 0x2140 JUMPI POP PUSH1 0x1 PUSH1 0x1 PUSH1 0xA0 SHL SUB DUP6 AND PUSH1 0x0 SWAP1 DUP2 MSTORE PUSH1 0x2 PUSH1 0x20 SWAP1 DUP2 MSTORE PUSH1 0x40 DUP1 DUP4 KECCAK256 PUSH4 0xFFFFFFFF PUSH1 0x0 NOT DUP10 ADD DUP2 AND DUP6 MSTORE SWAP3 MSTORE SWAP1 SWAP2 KECCAK256 SLOAD DUP3 DUP3 AND SWAP2 AND EQ JUMPDEST ISZERO PUSH2 0x217D JUMPI PUSH1 0x1 PUSH1 0x1 PUSH1 0xA0 SHL SUB DUP6 AND PUSH1 0x0 SWAP1 DUP2 MSTORE PUSH1 0x2 PUSH1 0x20 SWAP1 DUP2 MSTORE PUSH1 0x40 DUP1 DUP4 KECCAK256 PUSH4 0xFFFFFFFF PUSH1 0x0 NOT DUP10 ADD AND DUP5 MSTORE SWAP1 SWAP2 MSTORE SWAP1 KECCAK256 PUSH1 0x1 ADD DUP3 SWAP1 SSTORE PUSH2 0x21EE JUMP JUMPDEST PUSH1 0x40 DUP1 MLOAD DUP1 DUP3 ADD DUP3 MSTORE PUSH4 0xFFFFFFFF DUP1 DUP5 AND DUP3 MSTORE PUSH1 0x20 DUP1 DUP4 ADD DUP7 DUP2 MSTORE PUSH1 0x1 PUSH1 0x1 PUSH1 0xA0 SHL SUB DUP11 AND PUSH1 0x0 DUP2 DUP2 MSTORE PUSH1 0x2 DUP5 MSTORE DUP7 DUP2 KECCAK256 DUP12 DUP7 AND DUP3 MSTORE DUP5 MSTORE DUP7 DUP2 KECCAK256 SWAP6 MLOAD DUP7 SLOAD SWAP1 DUP7 AND PUSH4 0xFFFFFFFF NOT SWAP2 DUP3 AND OR DUP8 SSTORE SWAP3 MLOAD PUSH1 0x1 SWAP7 DUP8 ADD SSTORE SWAP1 DUP2 MSTORE PUSH1 0x3 SWAP1 SWAP3 MSTORE SWAP4 SWAP1 KECCAK256 DUP1 SLOAD SWAP3 DUP9 ADD SWAP1 SWAP2 AND SWAP2 SWAP1 SWAP3 AND OR SWAP1 SSTORE JUMPDEST PUSH1 0x40 DUP1 MLOAD DUP5 DUP2 MSTORE PUSH1 0x20 DUP2 ADD DUP5 SWAP1 MSTORE DUP2 MLOAD PUSH1 0x1 PUSH1 0x1 PUSH1 0xA0 SHL SUB DUP9 AND SWAP3 PUSH32 0xDEC2BACDD2F05B59DE34DA9B523DFF8BE42E5E38E818C82FDB0BAE774387A724 SWAP3 DUP3 SWAP1 SUB ADD SWAP1 LOG2 POP POP POP POP POP JUMP JUMPDEST PUSH1 0x0 DUP2 PUSH5 0x100000000 DUP5 LT PUSH2 0x228E JUMPI PUSH1 0x40 MLOAD PUSH3 0x461BCD PUSH1 0xE5 SHL DUP2 MSTORE PUSH1 0x20 PUSH1 0x4 DUP3 ADD DUP2 DUP2 MSTORE DUP4 MLOAD PUSH1 0x24 DUP5 ADD MSTORE DUP4 MLOAD SWAP1 SWAP3 DUP4 SWAP3 PUSH1 0x44 SWAP1 SWAP2 ADD SWAP2 SWAP1 DUP6 ADD SWAP1 DUP1 DUP4 DUP4 PUSH1 0x0 DUP4 ISZERO PUSH2 0x17D6 JUMPI DUP2 DUP2 ADD MLOAD DUP4 DUP3 ADD MSTORE PUSH1 0x20 ADD PUSH2 0x17BE JUMP JUMPDEST POP SWAP2 SWAP3 SWAP2 POP POP JUMP JUMPDEST PUSH1 0x40 DUP1 MLOAD DUP1 DUP3 ADD SWAP1 SWAP2 MSTORE PUSH1 0x0 DUP1 DUP3 MSTORE PUSH1 0x20 DUP3 ADD MSTORE SWAP1 JUMP INVALID DIFFICULTY PUSH6 0x6C6567617469 PUSH16 0x6E28616464726573732064656C656761 PUSH21 0x65652C75696E74206E6F6E63652C75696E74206578 PUSH17 0x697279295065726D697428616464726573 PUSH20 0x206F776E65722C61646472657373207370656E64 PUSH6 0x722C75696E74 KECCAK256 PUSH23 0x616C75652C75696E74206E6F6E63652C75696E74206465 PUSH2 0x646C PUSH10 0x6E652945495037313244 PUSH16 0x6D61696E28737472696E67206E616D65 0x2C PUSH22 0x696E7420636861696E49642C61646472657373207665 PUSH19 0x696679696E67436F6E74726163742953616665 0x4D PUSH2 0x7468 GASPRICE KECCAK256 PUSH14 0x756C7469706C69636174696F6E20 PUSH16 0x766572666C6F777472616E7366657246 PUSH19 0x6F6D3A2065786365656473207370656E646572 KECCAK256 PUSH2 0x6C6C PUSH16 0x77616E6365A265627A7A723158207BD9 0x23 PUSH10 0x61DD023400A573B5CF3 0x27 CALLDATACOPY 0xB2 0xC2 DUP5 SIGNEXTEND SSTORE SDIV BALANCE 0xE7 PUSH5 0x5A8E862EA0 PUSH8 0x564736F6C634300 SDIV GT STOP ORIGIN ",
  "sha1": "0b432bd48af4bad8b206361ea104c7781c3a3c7f",
  "source": "/**\n *Submitted for verification at Etherscan.io on 2020-11-05\n */\n\n// SPDX-License-Identifier: MIT\npragma solidity ^0.5.17;\n\nimport \"@openzeppelinV2/contracts/token/ERC20/IERC20.sol\";\nimport \"@openzeppelinV2/contracts/math/SafeMath.sol\";\n\ninterface StrategyProxy {\n    function lock() external;\n}\n\ninterface FeeDistribution {\n    function claim(address) external;\n}\n\ncontract veCurveVault {\n    using SafeMath for uint256;\n\n    /// @notice EIP-20 token name for this token\n    string public constant name = \"veCRV-DAO yVault\";\n\n    /// @notice EIP-20 token symbol for this token\n    string public constant symbol = \"yveCRV-DAO\";\n\n    /// @notice EIP-20 token decimals for this token\n    uint8 public constant decimals = 18;\n\n    /// @notice Total number of tokens in circulation\n    uint256 public totalSupply = 0; // Initial 0\n\n    /// @notice A record of each accounts delegate\n    mapping(address => address) public delegates;\n\n    /// @notice A record of votes checkpoints for each account, by index\n    mapping(address => mapping(uint32 => Checkpoint)) public checkpoints;\n\n    /// @notice The number of checkpoints for each account\n    mapping(address => uint32) public numCheckpoints;\n\n    mapping(address => mapping(address => uint256)) internal allowances;\n    mapping(address => uint256) internal balances;\n\n    /// @notice The EIP-712 typehash for the contract's domain\n    bytes32 public constant DOMAIN_TYPEHASH = keccak256(\"EIP712Domain(string name,uint chainId,address verifyingContract)\");\n    // NOTE: deployed code uses 0.6.12 with immutable,changing here for compatibility\n    //  -> bytes32 public immutable DOMAINSEPARATOR;\n    bytes32 public DOMAINSEPARATOR;\n\n    /// @notice The EIP-712 typehash for the delegation struct used by the contract\n    bytes32 public constant DELEGATION_TYPEHASH = keccak256(\"Delegation(address delegatee,uint nonce,uint expiry)\");\n\n    /// @notice The EIP-712 typehash for the permit struct used by the contract\n    bytes32 public constant PERMIT_TYPEHASH = keccak256(\"Permit(address owner,address spender,uint value,uint nonce,uint deadline)\");\n\n    /// @notice A record of states for signing / validating signatures\n    mapping(address => uint256) public nonces;\n\n    /// @notice An event thats emitted when an account changes its delegate\n    event DelegateChanged(address indexed delegator, address indexed fromDelegate, address indexed toDelegate);\n\n    /// @notice An event thats emitted when a delegate account's vote balance changes\n    event DelegateVotesChanged(address indexed delegate, uint256 previousBalance, uint256 newBalance);\n\n    /// @notice A checkpoint for marking number of votes from a given block\n    struct Checkpoint {\n        uint32 fromBlock;\n        uint256 votes;\n    }\n\n    /**\n     * @notice Delegate votes from `msg.sender` to `delegatee`\n     * @param delegatee The address to delegate votes to\n     */\n    function delegate(address delegatee) public {\n        _delegate(msg.sender, delegatee);\n    }\n\n    /**\n     * @notice Delegates votes from signatory to `delegatee`\n     * @param delegatee The address to delegate votes to\n     * @param nonce The contract state required to match the signature\n     * @param expiry The time at which to expire the signature\n     * @param v The recovery byte of the signature\n     * @param r Half of the ECDSA signature pair\n     * @param s Half of the ECDSA signature pair\n     */\n    function delegateBySig(\n        address delegatee,\n        uint256 nonce,\n        uint256 expiry,\n        uint8 v,\n        bytes32 r,\n        bytes32 s\n    ) public {\n        bytes32 structHash = keccak256(abi.encode(DELEGATION_TYPEHASH, delegatee, nonce, expiry));\n        bytes32 digest = keccak256(abi.encodePacked(\"\\x19\\x01\", DOMAINSEPARATOR, structHash));\n        address signatory = ecrecover(digest, v, r, s);\n        require(signatory != address(0), \"delegateBySig: sig\");\n        require(nonce == nonces[signatory]++, \"delegateBySig: nonce\");\n        require(now <= expiry, \"delegateBySig: expired\");\n        _delegate(signatory, delegatee);\n    }\n\n    /**\n     * @notice Gets the current votes balance for `account`\n     * @param account The address to get votes balance\n     * @return The number of current votes for `account`\n     */\n    function getCurrentVotes(address account) external view returns (uint256) {\n        uint32 nCheckpoints = numCheckpoints[account];\n        return nCheckpoints > 0 ? checkpoints[account][nCheckpoints - 1].votes : 0;\n    }\n\n    /**\n     * @notice Determine the prior number of votes for an account as of a block number\n     * @dev Block number must be a finalized block or else this function will revert to prevent misinformation.\n     * @param account The address of the account to check\n     * @param blockNumber The block number to get the vote balance at\n     * @return The number of votes the account had as of the given block\n     */\n    function getPriorVotes(address account, uint256 blockNumber) public view returns (uint256) {\n        require(blockNumber < block.number, \"getPriorVotes:\");\n\n        uint32 nCheckpoints = numCheckpoints[account];\n        if (nCheckpoints == 0) {\n            return 0;\n        }\n\n        // First check most recent balance\n        if (checkpoints[account][nCheckpoints - 1].fromBlock <= blockNumber) {\n            return checkpoints[account][nCheckpoints - 1].votes;\n        }\n\n        // Next check implicit zero balance\n        if (checkpoints[account][0].fromBlock > blockNumber) {\n            return 0;\n        }\n\n        uint32 lower = 0;\n        uint32 upper = nCheckpoints - 1;\n        while (upper > lower) {\n            uint32 center = upper - (upper - lower) / 2; // ceil, avoiding overflow\n            Checkpoint memory cp = checkpoints[account][center];\n            if (cp.fromBlock == blockNumber) {\n                return cp.votes;\n            } else if (cp.fromBlock < blockNumber) {\n                lower = center;\n            } else {\n                upper = center - 1;\n            }\n        }\n        return checkpoints[account][lower].votes;\n    }\n\n    function _delegate(address delegator, address delegatee) internal {\n        address currentDelegate = delegates[delegator];\n        uint256 delegatorBalance = balances[delegator];\n        delegates[delegator] = delegatee;\n\n        emit DelegateChanged(delegator, currentDelegate, delegatee);\n\n        _moveDelegates(currentDelegate, delegatee, delegatorBalance);\n    }\n\n    function _moveDelegates(\n        address srcRep,\n        address dstRep,\n        uint256 amount\n    ) internal {\n        if (srcRep != dstRep && amount > 0) {\n            if (srcRep != address(0)) {\n                uint32 srcRepNum = numCheckpoints[srcRep];\n                uint256 srcRepOld = srcRepNum > 0 ? checkpoints[srcRep][srcRepNum - 1].votes : 0;\n                uint256 srcRepNew = srcRepOld.sub(amount, \"_moveVotes: underflows\");\n                _writeCheckpoint(srcRep, srcRepNum, srcRepOld, srcRepNew);\n            }\n\n            if (dstRep != address(0)) {\n                uint32 dstRepNum = numCheckpoints[dstRep];\n                uint256 dstRepOld = dstRepNum > 0 ? checkpoints[dstRep][dstRepNum - 1].votes : 0;\n                uint256 dstRepNew = dstRepOld.add(amount);\n                _writeCheckpoint(dstRep, dstRepNum, dstRepOld, dstRepNew);\n            }\n        }\n    }\n\n    function _writeCheckpoint(\n        address delegatee,\n        uint32 nCheckpoints,\n        uint256 oldVotes,\n        uint256 newVotes\n    ) internal {\n        uint32 blockNumber = safe32(block.number, \"_writeCheckpoint: 32 bits\");\n\n        if (nCheckpoints > 0 && checkpoints[delegatee][nCheckpoints - 1].fromBlock == blockNumber) {\n            checkpoints[delegatee][nCheckpoints - 1].votes = newVotes;\n        } else {\n            checkpoints[delegatee][nCheckpoints] = Checkpoint(blockNumber, newVotes);\n            numCheckpoints[delegatee] = nCheckpoints + 1;\n        }\n\n        emit DelegateVotesChanged(delegatee, oldVotes, newVotes);\n    }\n\n    function safe32(uint256 n, string memory errorMessage) internal pure returns (uint32) {\n        require(n < 2**32, errorMessage);\n        return uint32(n);\n    }\n\n    /// @notice The standard EIP-20 transfer event\n    event Transfer(address indexed from, address indexed to, uint256 amount);\n\n    /// @notice The standard EIP-20 approval event\n    event Approval(address indexed owner, address indexed spender, uint256 amount);\n\n    /// @notice governance address for the governance contract\n    address public governance;\n    address public pendingGovernance;\n\n    IERC20 public constant CRV = IERC20(0xD533a949740bb3306d119CC777fa900bA034cd52);\n    address public constant LOCK = address(0xF147b8125d2ef93FB6965Db97D6746952a133934);\n    address public proxy = address(0x7A1848e7847F3f5FfB4d8e63BdB9569db535A4f0);\n    address public feeDistribution;\n\n    IERC20 public constant rewards = IERC20(0x6c3F90f043a72FA612cbac8115EE7e52BDe6E490);\n\n    uint256 public index = 0;\n    uint256 public bal = 0;\n\n    mapping(address => uint256) public supplyIndex;\n\n    function update() external {\n        _update();\n    }\n\n    function _update() internal {\n        if (totalSupply > 0) {\n            _claim();\n            uint256 _bal = rewards.balanceOf(address(this));\n            if (_bal > bal) {\n                uint256 _diff = _bal.sub(bal, \"veCRV::_update: bal _diff\");\n                if (_diff > 0) {\n                    uint256 _ratio = _diff.mul(1e18).div(totalSupply);\n                    if (_ratio > 0) {\n                        index = index.add(_ratio);\n                        bal = _bal;\n                    }\n                }\n            }\n        }\n    }\n\n    function _claim() internal {\n        if (feeDistribution != address(0x0)) {\n            FeeDistribution(feeDistribution).claim(address(this));\n        }\n    }\n\n    function updateFor(address recipient) public {\n        _update();\n        uint256 _supplied = balances[recipient];\n        if (_supplied > 0) {\n            uint256 _supplyIndex = supplyIndex[recipient];\n            supplyIndex[recipient] = index;\n            uint256 _delta = index.sub(_supplyIndex, \"veCRV::_claimFor: index delta\");\n            if (_delta > 0) {\n                uint256 _share = _supplied.mul(_delta).div(1e18);\n                claimable[recipient] = claimable[recipient].add(_share);\n            }\n        } else {\n            supplyIndex[recipient] = index;\n        }\n    }\n\n    mapping(address => uint256) public claimable;\n\n    function claim() external {\n        _claimFor(msg.sender);\n    }\n\n    function claimFor(address recipient) external {\n        _claimFor(recipient);\n    }\n\n    function _claimFor(address recipient) internal {\n        updateFor(recipient);\n        rewards.transfer(recipient, claimable[recipient]);\n        claimable[recipient] = 0;\n        bal = rewards.balanceOf(address(this));\n    }\n\n    constructor() public {\n        // Set governance for this token\n        governance = msg.sender;\n        DOMAINSEPARATOR = keccak256(abi.encode(DOMAIN_TYPEHASH, keccak256(bytes(name)), _getChainId(), address(this)));\n    }\n\n    function _mint(address dst, uint256 amount) internal {\n        updateFor(dst);\n        // mint the amount\n        totalSupply = totalSupply.add(amount);\n        // transfer the amount to the recipient\n        balances[dst] = balances[dst].add(amount);\n        emit Transfer(address(0), dst, amount);\n\n        // move delegates\n        _moveDelegates(address(0), delegates[dst], amount);\n    }\n\n    function depositAll() external {\n        _deposit(CRV.balanceOf(msg.sender));\n    }\n\n    function deposit(uint256 _amount) external {\n        _deposit(_amount);\n    }\n\n    function _deposit(uint256 _amount) internal {\n        CRV.transferFrom(msg.sender, LOCK, _amount);\n        _mint(msg.sender, _amount);\n        StrategyProxy(proxy).lock();\n    }\n\n    function setProxy(address _proxy) external {\n        require(msg.sender == governance, \"setGovernance: !gov\");\n        proxy = _proxy;\n    }\n\n    function setFeeDistribution(address _feeDistribution) external {\n        require(msg.sender == governance, \"setGovernance: !gov\");\n        feeDistribution = _feeDistribution;\n    }\n\n    /**\n     * @notice Allows governance to change governance (for future upgradability)\n     * @param _governance new governance address to set\n     */\n    function setGovernance(address _governance) external {\n        require(msg.sender == governance, \"setGovernance: !gov\");\n        pendingGovernance = _governance;\n    }\n\n    /**\n     * @notice Allows pendingGovernance to accept their role as governance (protection pattern)\n     */\n    function acceptGovernance() external {\n        require(msg.sender == pendingGovernance, \"acceptGovernance: !pendingGov\");\n        governance = pendingGovernance;\n    }\n\n    /**\n     * @notice Get the number of tokens `spender` is approved to spend on behalf of `account`\n     * @param account The address of the account holding the funds\n     * @param spender The address of the account spending the funds\n     * @return The number of tokens approved\n     */\n    function allowance(address account, address spender) external view returns (uint256) {\n        return allowances[account][spender];\n    }\n\n    /**\n     * @notice Approve `spender` to transfer up to `amount` from `src`\n     * @dev This will overwrite the approval amount for `spender`\n     *  and is subject to issues noted [here](https://eips.ethereum.org/EIPS/eip-20#approve)\n     * @param spender The address of the account which may transfer tokens\n     * @param amount The number of tokens that are approved (2^256-1 means infinite)\n     * @return Whether or not the approval succeeded\n     */\n    function approve(address spender, uint256 amount) external returns (bool) {\n        allowances[msg.sender][spender] = amount;\n\n        emit Approval(msg.sender, spender, amount);\n        return true;\n    }\n\n    /**\n     * @notice Triggers an approval from owner to spends\n     * @param owner The address to approve from\n     * @param spender The address to be approved\n     * @param amount The number of tokens that are approved (2^256-1 means infinite)\n     * @param deadline The time at which to expire the signature\n     * @param v The recovery byte of the signature\n     * @param r Half of the ECDSA signature pair\n     * @param s Half of the ECDSA signature pair\n     */\n    function permit(\n        address owner,\n        address spender,\n        uint256 amount,\n        uint256 deadline,\n        uint8 v,\n        bytes32 r,\n        bytes32 s\n    ) external {\n        bytes32 structHash = keccak256(abi.encode(PERMIT_TYPEHASH, owner, spender, amount, nonces[owner]++, deadline));\n        bytes32 digest = keccak256(abi.encodePacked(\"\\x19\\x01\", DOMAINSEPARATOR, structHash));\n        address signatory = ecrecover(digest, v, r, s);\n        require(signatory != address(0), \"permit: signature\");\n        require(signatory == owner, \"permit: unauthorized\");\n        require(now <= deadline, \"permit: expired\");\n\n        allowances[owner][spender] = amount;\n\n        emit Approval(owner, spender, amount);\n    }\n\n    /**\n     * @notice Get the number of tokens held by the `account`\n     * @param account The address of the account to get the balance of\n     * @return The number of tokens held\n     */\n    function balanceOf(address account) external view returns (uint256) {\n        return balances[account];\n    }\n\n    /**\n     * @notice Transfer `amount` tokens from `msg.sender` to `dst`\n     * @param dst The address of the destination account\n     * @param amount The number of tokens to transfer\n     * @return Whether or not the transfer succeeded\n     */\n    function transfer(address dst, uint256 amount) external returns (bool) {\n        _transferTokens(msg.sender, dst, amount);\n        return true;\n    }\n\n    /**\n     * @notice Transfer `amount` tokens from `src` to `dst`\n     * @param src The address of the source account\n     * @param dst The address of the destination account\n     * @param amount The number of tokens to transfer\n     * @return Whether or not the transfer succeeded\n     */\n    function transferFrom(\n        address src,\n        address dst,\n        uint256 amount\n    ) external returns (bool) {\n        address spender = msg.sender;\n        uint256 spenderAllowance = allowances[src][spender];\n\n        if (spender != src && spenderAllowance != uint256(-1)) {\n            uint256 newAllowance = spenderAllowance.sub(amount, \"transferFrom: exceeds spender allowance\");\n            allowances[src][spender] = newAllowance;\n\n            emit Approval(src, spender, newAllowance);\n        }\n\n        _transferTokens(src, dst, amount);\n        return true;\n    }\n\n    function _transferTokens(\n        address src,\n        address dst,\n        uint256 amount\n    ) internal {\n        require(src != address(0), \"_transferTokens: zero address\");\n        require(dst != address(0), \"_transferTokens: zero address\");\n\n        updateFor(src);\n        updateFor(dst);\n\n        balances[src] = balances[src].sub(amount, \"_transferTokens: exceeds balance\");\n        balances[dst] = balances[dst].add(amount);\n        emit Transfer(src, dst, amount);\n    }\n\n    function _getChainId() internal pure returns (uint256) {\n        uint256 chainId;\n        assembly {\n            chainId := chainid()\n        }\n        return chainId;\n    }\n}\n",
  "sourcePath": "contracts/vaults/CurveVault.sol",
  "type": "contract"
}